:100000000C94B6000C9404050C942D050C94DE00A1
:100010000C94DE000C94DE000C94DE000C94DE00E8
:100020000C94DE000C94B7080C94DE000C94360699
:100030000C94DE000C9412070C94E6050C94DE0080
:100040000C94DE000C94DE000C94CE080C94DE00C0
:100050000C94DE000C9407100C94DE000C94DE006F
:100060000C94200C0C94DE006E616E00696E6600CC
:1000700000407A10F35A00A0724E18090010A5D45F
:10008000E80000E87648170000E40B54020000CABC
:100090009A3B000000E1F505000080969800000002
:1000A00040420F000000A086010000001027000061
:1000B0000000E803000000006400000000000A00E7
:1000C000000000000100000000002C76D888DC67EA
:1000D0004F0823DFC1DFAE59E1B1B796E5E3E45342
:1000E000C63AE651997696E8E6C28426EB898C9B5F
:1000F00062ED407C6FFCEFBC9C9F40F2BAA56FA5FF
:10010000F490055A2AF75C936B6CF9676DC11BFC80
:10011000E0E40D47FEF520E6B500D0ED902E03009B
:10012000943577050080841E080000204E0A0000E8
:1001300000C80C333333330F986E12831141EF8DA7
:100140002114893BE65516CFFEE6DB18D1844B38E7
:100150001BF77C1D901DA4BBE424203284725E2218
:100160008100C9F124ECA1E53D27E21E11241FBE48
:10017000CFEFD8E0DEBFCDBF11E0A0E0B1E0ECEF03
:10018000FAE402C005900D92A033B107D9F723E03D
:10019000A0E3B1E001C01D92A531B207E1F711E083
:1001A000CCE6D1E004C02297FE010E94721FCA363D
:1001B000D107C9F70E94EE1C0C947C250C9400001A
:1001C0000E94A80508950E94B80508950E94A805F8
:1001D00008950E94B80508950E94A80508950E94F8
:1001E000B80508950E94A80508950E94B8050895CD
:1001F0009B0160E040E00E946D0608959B0161E074
:1002000040E00E946D0608959B0160E041E00E947D
:100210006D0608950E94EA0608950E944B0708950E
:100220000E94AE0708950E94D10508950E94D3054B
:1002300008950E94E00508950E94E40508950E9433
:100240000F0608950E94290608950E94BF07089589
:100250000E94310808950E94360808950E943908C6
:1002600008950E943C080895C9010E94D707089587
:10027000C9010E94020808950E94410808950E9441
:100280005D0808950E94AE08089541E00E94970815
:10029000089540E00E94970808950E94CC050895B3
:1002A0000E949F0508950E94A30508950E949A0543
:1002B00008950F931F938C010E949C05F80193836E
:1002C0008283619370831F910F9108950E94160499
:1002D000089561700E944704089561700E94890426
:1002E00008950E94010E08950E94250F08950E940E
:1002F000580F08958AE591E0089561EE7AE784E960
:100300009FE308950E94AC0F08950E94820F089504
:100310000E946D1008950E94B31008958AE591E03F
:10032000089561EE7AE784E99FE308950E94F01052
:1003300008950E945C1108950E94560508950E9438
:10034000700508950E94760508950E949405089509
:100350000E94EC0408950E94F20408950E94EE04A5
:1003600008950E94F40408950E94F00408950E94E4
:10037000F60408950E94F80408950E94FE0408956A
:100380000E94FA0408950E94000508950E94FC044A
:1003900008950E94020508950E94991108950F93EF
:1003A0004170217000E00E941F120F9108950E9479
:1003B000B21108950E94F81508950E94DA11089567
:1003C0000F934170217001E00E941F129C0140E0D8
:1003D00050E0BA01CA010F9108950E945F13089579
:1003E0000E94DA1208950E944B1308950E946C1324
:1003F00008950E94B31308950E941009089581E0A2
:1004000008950F93A0E0B0E0E1E02A173B074A0708
:100410005B076A077B078A079B0709F0E0E0E1704A
:10042000E03039F4017088EE93E0B901402F0E946A
:100430004A090F91089581E008950F93A0E0B0E07C
:10044000E1E02A173B074A075B076A077B078A0731
:100450009B0709F0E0E0E170E03039F4017088EECC
:1004600093E0B901402F0E946B090F9108950E94FB
:100470004309089581E008951F93142F0E944108B5
:10048000BC01117088EE93E0412F0E946B091F910F
:10049000089581E008951F93162FBC0195958795C7
:1004A0009595879595958795959587959595879534
:1004B0009595879595958795959587959595879524
:1004C0009595879595958795959587959595879514
:1004D00095958795959587950E944108BC01117067
:1004E00088EE93E0412F0E946B091F91089581E0EF
:1004F00008951F93162F682F782F770F770BCB0156
:1005000095958795959587959595879595958795D3
:1005100095958795959587959595879595958795C3
:1005200095958795959587959595879595958795B3
:100530009595879595958795959587950E944108FE
:10054000BC01117088EE93E0412F0E946B091F914E
:10055000089581E008951F93162FBC0180E090E07C
:100560000E944108BC01117088EE93E0412F0E9467
:100570006B091F91089581E008951F93162F682F2E
:10058000772780E090E00E944108BC01117088EE5E
:1005900093E0412F0E946B091F91089581E0089517
:1005A0001F93142F0E945D08BC01117088EE93E028
:1005B000412F0E946B091F9108950E948B09089595
:1005C0000E949609089541700E94B309089581E040
:1005D0000E94E209089580E00E94E20908950E94C5
:1005E000EC09089581E0089561700E94F209089570
:1005F00081E0089581E008950F93EE2DA0E0B0E032
:10060000F1E02A173B074A075B076A077B078A075F
:100610009B0709F0F0E0F170F03059F40170E170DF
:1006200088EE93E0B90141E0202F0E2F0E941E0AB0
:1006300002C00E942E089C0140E050E0BA01CA01AD
:100640000F9108950F9301700E945A0A0F91089517
:1006500081E0089541700E94AF0A08950E94C20A85
:1006600008950E94D10A08950E94F90A08950E94EF
:100670001C0B08950E945C0B08950F931F93182F75
:100680000E943908082F0E943608AC01602F772796
:10069000812F0E94820B1F910F910895E0E0F0E0FE
:1006A00091E0EE16FF060E071F072E073F074E07C5
:1006B0005F0709F090E09170903019F4A7010E9453
:1006C000820B089581E008959E2DA0E0B0E0E1E066
:1006D0000A171B072A073B074A075B076A077B07BE
:1006E00009F0E0E0E170E03029F49170B801492FA1
:1006F0000E94B80B0895FF920F931F93142F062F9B
:10070000F82E0E943108802F0E94BF07812F0E947F
:10071000BF070E943908182F0E943608AC01612FCC
:1007200077278F2D0E94820B1F910F91FF900895C4
:100730001F93182F0E945C0B812F0E94F90A1F91B2
:1007400008950F931F93142F082F0E945C0B802F86
:10075000612F0E941C0B1F910F91089581E0089555
:1007600061700E94F50C08950E940D0D08950E947D
:10077000120D08950E94170D08950E941C0D0895F2
:100780000E94210D08950E94260D08950E94400D9B
:1007900008950E94570D08950E94660D08950E94C5
:1007A000460D08951F930E943908182F0E9436089D
:1007B000BC01812F99270E948D0D1F910895A0E003
:1007C000B0E0E1E00A171B072A073B074A075B076F
:1007D0006A077B0709F0E0E0E170E03019F4B80146
:1007E0000E948D0D089581E008950F93A0E0B0E080
:1007F000E1E02A173B074A075B076A077B078A077E
:100800009B0709F0E0E0E170E03029F40170C901D4
:10081000602F0E94A80D0F9108950E94DE0D08958B
:100820000E94F60A08950E94FB0D0895282F30E0DB
:1008300028303105DCF02E303105A4F025313105AA
:1008400024F586B12E50310941E050E002C0440F3A
:10085000551F2A95E2F790E04823592381E0452B64
:10086000A1F0089583B128503109EECF99B121E06C
:1008700030E002C0220F331F8A95E2F7892F90E003
:100880002823392381E0232B61F780E00895282F66
:1008900030E0283031056CF49BB121E030E0082EC7
:1008A00001C0220F0A94EAF7662341F1922B9BB90B
:1008B00008952E3031057CF445B12850310981E08E
:1008C00090E0022E01C0880F0A94EAF76623D1F067
:1008D000482B45B90895253131057CF448B12E5097
:1008E000310981E090E0022E01C0880F0A94EAF7F6
:1008F00061110CC08095842388B90895209529231F
:100900002BB908958095842385B90895482B48B95B
:100910000895282F30E06623B1F028303105B4F176
:100920002E303105F4F1253131051CF547B12E503B
:10093000310981E090E0022E01C0880F0A94EAF7A5
:10094000482B47B9089528303105A4F02E303105E1
:10095000ACF1253131056CF447B12E50310981E0FD
:1009600090E0022E01C0880F0A94EAF78095842354
:1009700087B908959AB121E030E0082E01C0220F16
:100980000A94EAF7209529232AB908959AB121E01B
:1009900030E0082E01C0220F0A94EAF7922B9AB990
:1009A000089544B12850310981E090E0022E01C041
:1009B000880F0A94EAF7482B44B9089544B12850A7
:1009C000310981E090E0022E01C0880F0A94EAF715
:1009D0008095842384B9089585B1089588B10895D8
:1009E0008BB1089585B9089588B908958BB9089594
:1009F00084B1089587B108958AB1089584B908959E
:100A000087B908958AB908951F920F920FB60F9271
:100A100011242F933F934F935F936F937F938F9303
:100A20009F93AF93BF93EF93FF93E0913201F091C7
:100A30003301309709F00995FF91EF91BF91AF9184
:100A40009F918F917F916F915F914F913F912F91E6
:100A50000F900FBE0F901F9018951F920F920FB618
:100A60000F9211242F933F934F935F936F937F9334
:100A70008F939F93AF93BF93EF93FF93E0913001D8
:100A8000F0913101309709F00995FF91EF91BF91F5
:100A9000AF919F918F917F916F915F914F913F9116
:100AA0002F910F900FBE0F901F901895CF93C82FC6
:100AB00070933301609332018AE090E00E94A805B0
:100AC000F89481E08CBBE898E9E6F0E090818C2F07
:100AD00083709C7F892B8083E89A7894CF910895C6
:100AE0001092330110923201E8980895CF93C82FE5
:100AF00070933101609330018AE090E00E94A80574
:100B0000F89482E08CBBE998E9E6F0E020819081DE
:100B10008C2F8370880F880F937F892B822380838B
:100B2000E99A7894CF910895109231011092300192
:100B3000E99808950C9492230E94922308950E94AC
:100B40009223CB010895BC0180E090E00C949723A0
:100B5000009769F020E030E0EFE9FFE03197F1F72E
:100B600000C000002F5F3F4F28173907A9F70895ED
:100B7000969587959695879596958795009759F0C0
:100B800020E030E04AE24A95F1F700C02F5F3F4F86
:100B900028173907B9F708958091340190913501EC
:100BA000089516BC0895833041F0823009F008950D
:100BB00086E085BD14BC16BC089587E085BDFACFDC
:100BC00014BC15BC16BC089586B508951F920F92EB
:100BD0000FB60F9211242F933F934F935F936F9310
:100BE0007F938F939F93AF93BF93EF93FF93E09186
:100BF000CC01F091CD01309709F00995FF91EF916B
:100C0000BF91AF919F918F917F916F915F914F9124
:100C10003F912F910F900FBE0F901F9018955093FA
:100C2000CD014093CC01833089F0823051F067BD13
:100C300082E084BD80916E00826080936E00789423
:100C4000089586E085BD14BC16BCF1CF87E085BD54
:100C5000FACF1092CD011092CC01EEE6F0E0808147
:100C60008D7F808314BC15BC16BC08951F920F9213
:100C70000FB60F9211242F933F934F935F936F936F
:100C80007F938F939F93AF93BF93EF93FF93E091E5
:100C9000CA01F091CB01309791F00995FF91EF9146
:100CA000BF91AF919F918F917F916F915F914F9184
:100CB0003F912F910F900FBE0F901F90189580912C
:100CC000C8019091C901892B49F35B9AE091C80151
:100CD000F091C90109955B98E1CF662301F130934A
:100CE000C9012093C80110928000109285001092D3
:100CF0008400442301F129E02093810048EC489FBF
:100D00009001499F300D1124309389002093880071
:100D100080916F00826080936F0078940895309383
:100D2000CB012093CA01109280001092850010928E
:100D300084004111E0CF9C0121503109273441E06A
:100D40003407A0F42AE02093810048EC489F9001EA
:100D5000499F300D112430938900209388008091A1
:100D60006F00826080936F00789408952F3F334A1C
:100D7000D0F42DE0209381009C01A8ECB0E00E940B
:100D80001F1F37E096958795779567953A95D1F728
:100D9000709389006093880080916F0082608093D7
:100DA0006F00789408951092CB011092CA011092AE
:100DB000C9011092C80110926F008FEF86BB81E0CD
:100DC0008093800083E080938100109285001092D0
:100DD000840008951092CB011092CA011092C901AB
:100DE0001092C80110926F008FEF86BB81E0809354
:100DF000800083E08093810010928500109284002F
:100E000008951092C7011092C60110926F008FEFE3
:100E100086BB109280001092810010928500109283
:100E2000840008951F920F920FB60F9211242F93F2
:100E30003F934F935F936F937F938F939F93AF9362
:100E4000BF93EF93FF93E091C601F091C7013097F4
:100E500089F009951092C7011092C60110926F0097
:100E60008FEF86BB10928000109281001092850057
:100E700010928400FF91EF91BF91AF919F918F915C
:100E80007F916F915F914F913F912F910F900FBE86
:100E90000F901F9018950F931F932091C6013091CA
:100EA000C701232B19F01F910F91089510926F0025
:100EB0002FEF26BB109280001092810010928500C7
:100EC000109284008B019C01000F111F221F331F01
:100ED000000F111F221F331F000F111F221F331F6E
:100EE000000F111F221F331F01151105E1E02E070E
:100EF000310510F101151105210584E0380798F638
:100F00005093C7014093C6014AE03695279517953F
:100F100007954A95D1F71195019511091093850010
:100F20000093840085E08093810081E080936F00CE
:100F300078941F910F9108955093C7014093C60173
:100F400040EF46039001479F300D112430938500F8
:100F50002093840081E080938100E7CF1092C70145
:100F60001092C60110926F008FEF86BB1092800026
:100F70001092810010928500109284000895A09133
:100F80004501AF3791F0E1E0EA0FE0934501BB275F
:100F9000A7FDB095AA5BBE4F8C93FF27E7FDF095A8
:100FA000EA5BFE4F108281E0089580E0089500978B
:100FB000F9F0209145012F37B1F0FC013081332346
:100FC000E1F0DC01119603C03D913323A1F0E22F43
:100FD000FF27E7FDF095EA5BFE4F30832F5F2F3749
:100FE00099F720934501EFE7F0E0EA5BFE4F1082AE
:100FF00086E491E0089520934501E22FFF27E7FD65
:10100000F095F3CF009701F1209145012F37B9F00A
:10101000FC0134913323E9F0FC01319604C0349192
:1010200031963323A1F0A22FBB27A7FDB095AA5B71
:10103000BE4F3C932F5F2F3791F720934501EFE789
:10104000F0E0EA5BFE4F108286E491E00895209381
:101050004501E22FFF27E7FDF095F3CF85E291E010
:1010600008951092450110924601089586E491E09A
:101070000895809145010895909145018FE7891B5E
:1010800008959F938F937F936F9382E291E09F9354
:101090008F931F928FE08F9386E391E09F938F93BE
:1010A0000E94C7248DB79EB70A960FB6F8949EBFCC
:1010B0000FBE8DBF86E391E008959F938F937F933A
:1010C0006F9386E291E09F938F931F928FE08F93AF
:1010D00086E391E09F938F930E94C7248DB79EB7BC
:1010E0000A960FB6F8949EBF0FBE8DBF86E391E0BF
:1010F00008959F938F937F936F931F924F938BE2EB
:1011000091E09F938F931F928FE08F9386E391E0FE
:101110009F938F930E94C7248DB79EB70C960FB6EE
:10112000F8949EBF0FBE8DBF86E391E008954111F4
:101130000AC080799170F999FECF92BD81BD60BDE2
:10114000FA9AF99A0895F999FECF8079917092BD33
:1011500081BDF89A20B56213EECF0895F999FECFBC
:101160008079917092BD81BDF89A80B508951F92E3
:101170000F920FB60F9211248F939F938091340199
:1011800090913501019690933501809334019F91A0
:101190008F910F900FBE0F901F9018951F920F9276
:1011A0000FB60F9211242F938F939F93EF93FF937A
:1011B0008091D80181111EC0E091DA0181E08E0F8B
:1011C0008093DA019091C600FF27E7FDF095E45285
:1011D000FE4F9083992787FD90958F77907897FDA4
:1011E00013C08093DA0191E02091DB01281390E095
:1011F0009093D801FF91EF919F918F912F910F9034
:101200000FBE0F901F901895019780689F6F0196F1
:101210008093DA0191E02091DB012813E8CFE8CF39
:101220009C0140E050E0220F331F441F551F220F46
:10123000331F441F551F220F331F441F551F220FFA
:10124000331F441F551F60E074E284EF90E00E945A
:10125000FD1E2150310941095109BB2757FDBA959F
:10126000A52F942F832F8093C5002093C400E2EC18
:10127000F0E0808186608083E1ECF0E08081886925
:101280008083789408959091C00095FFFCCF80935F
:10129000C60008950097A1F0FB013491332381F03B
:1012A0003196860F971F2091C00025FFFCCF309309
:1012B000C600E817F90721F0349131963111F3CFC8
:1012C000442341F08091C00085FFFCCF8AE08093E9
:1012D000C60008950895009799F0FB0130813323EB
:1012E00079F03196860F971F2091C00025FFFCCF23
:1012F0003093C600E817F90719F031913111F4CF96
:10130000442341F08091C00085FFFCCF8AE08093A8
:10131000C600089508959091DB018091DA01981735
:1013200011F081E008958091D80108952091D801AD
:101330009091DA018091DB01981791F09FB7F894B2
:10134000E091DB0181E08E0F8093DB01FF27E7FD59
:10135000F095E452FE4F80811092D8019FBF08950E
:101360002111ECCFFFCFFF920F931F93CF93DF9309
:101370001F92CDB7DEB7182FF62E00911F01602FF8
:101380008BE049830E948904602F8DE00E948904CC
:10139000602F8AE00E948904812F837080654981D3
:1013A00090E2499FA0011124842B6F2D6370660F7A
:1013B000660F682B6CBD0F90DF91CF911F910F913D
:1013C000FF900895811104C08DB58E7F8DBD089565
:1013D0008DB581608DBD08958EBD0DB407FEFDCF26
:1013E0008EB508950097D1F0AC0120E030E01EBC2E
:1013F0000DB407FEFDCF7EB520383105D4F02F5F48
:101400003F4F2817390799F7662329F0203831050F
:101410004CF01092FC028DE792E008956623D9F318
:1014200040E050E0FA01E358FD4F10828DE792E072
:101430000895F901E358FD4F7083E1CF0F930097B2
:1014400049F1A0E0B0E050E0E0E0F0E0442301F139
:10145000A60FB71F5C9151111BC021110EC030E0C7
:101460003EBD0DB407FEFDCF3EB5E038F105ECF012
:101470003196DF01E817F90749F7002329F0E03832
:10148000F10564F01092FC028DE792E00F9108954F
:10149000352FE6CF0023C1F3E0E0F0E0E358FD4F45
:1014A00010828DE792E00F910895DF01A358BD4FA0
:1014B0003C93DECFDF92EF92FF920F931F93CF9377
:1014C000DF93D82E162FF42EE22E60E0812F0E949B
:1014D0004704002341F1C0E8D0E061E08C2F8D216A
:1014E00009F460E08F2D0E94470461E0812F0E9483
:1014F00047048E2D0E9416048C9F802D1124D82B1A
:1015000060E0812F0E944704C69539F761E08F2D76
:101510000E9447048D2FDF91CF911F910F91FF9073
:10152000EF90DF900895C1E0D0E061E08C2F8D2135
:1015300009F460E08F2D0E94470461E0812F0E9432
:1015400047048E2D0E9416048C9F802D1124D82BC9
:1015500060E0812F0E944704CC0F39F7D7CF63702A
:101560006093B9008093B80084E08093BC0041117F
:1015700001C0089561E082E10E94470461E083E1D7
:101580000C94470484EA8093BC008091BC0087FFE0
:10159000FCCF9091B900987F81E0983009F080E00D
:1015A000089584E98093BC0008958093BB0084E88B
:1015B0008093BC008091BC0087FFFCCF9091B90064
:1015C000987F81E0983209F080E00895882351F0F7
:1015D00084EC8093BC008091BC0087FFFCCF80919D
:1015E000BB00089584E88093BC00F5CF8091B900DA
:1015F000089594EA9093BC009091BC0097FFFCCFB3
:101600009091B900880F8F5F8093BB0084E880932E
:10161000BC008091BC0087FFFCCF8091B90084E8BA
:101620008093BC008091BC0087FFFCCF8091BB0001
:1016300094E99093BC00089594EA9093BC00909133
:10164000BC0097FFFCCF9091B900880F8F5F80930B
:10165000BB0084E88093BC008091BC0087FFFCCF76
:101660008091B900262F30E021153105E1F0EDE73A
:10167000F2E080E090E054E864EC01968217930772
:10168000C4F480389105A9F06093BC004091BC007F
:1016900047FFFCCF4091BB0041938217930719F09D
:1016A0008038910551F784E98093BC008DE792E082
:1016B00008955093BC00EACF94EA9093BC009091B7
:1016C000BC0097FFFCCF9091B90090E0880F991F64
:1016D0008093BB0084E88093BC008091BC0087FFAE
:1016E000FCCF8091B9006093BB0084E88093BC007C
:1016F0008091BC0087FFFCCF8091B90084E9809382
:10170000BC00089594EA9093BC009091BC0097FFB0
:10171000FCCF9091B90090E0880F991F8093BB0097
:1017200084E88093BC008091BC0087FFFCCF80914F
:10173000B90061157105C1F0FA0180818823A1F01B
:101740003196640F751F94E88093BB009093BC00A2
:101750008091BC0087FFFCCF8091B900E617F707A6
:1017600019F081918111F0CF84E98093BC00089534
:101770000F931F93CF93DF931F92CDB7DEB78B01EB
:1017800094EA9093BC009091BC0097FFFCCF90919D
:10179000B90090E0880F991F8093BB0084E8809384
:1017A000BC008091BC0087FFFCCF8091B90068EE3F
:1017B00073E0C80149830E948A2449810097C9F0D7
:1017C000F80124912223A9F03196800F911F34E86B
:1017D0002093BB003093BC002091BC0027FFFCCFBE
:1017E0002091B900E817F90721F0249131962111D1
:1017F000EFCF442361F08AE08093BB0084E88093BC
:10180000BC008091BC0087FFFCCF8091B90084E9C7
:101810008093BC000F90DF91CF911F910F9108959D
:101820008093BB00662341F084EC8093BC008091E0
:10183000BC0087FFFCCF089584E88093BC00F7CFFD
:101840001F920F920FB60F9211242F933F934F9335
:101850005F936F937F938F939F93AF93BF93EF9318
:10186000FF93CF93DF931F92CDB7DEB78091B9007E
:10187000887F8036F9F08091B900887F883A09F432
:1018800043C08091BC00856C8093BC000F90DF91B9
:10189000CF91FF91EF91BF91AF919F918F917F91E8
:1018A0006F915F914F913F912F910F900FBE0F90CD
:1018B0001F901895EDE7F2E060E070E024EC2093D3
:1018C000BC008091BC0087FFFCCF9091BB00809151
:1018D000B900887F803829F08091B900887F8838E6
:1018E00031F491936F5F7F4F6038710541F7E0915C
:1018F000D401F091D501309709F457C08DE792E0FB
:1019000009951092D901BDCFE091D201F091D30198
:10191000309751F11982CE01019609952981222330
:1019200009F4AFCF60E0A4E874EC462F50E0FC016E
:10193000E40FF51F30813093BB0030E021503109B6
:10194000421753077CF57093BC002091BC0027FF21
:10195000FCCF2091B900287F283B09F092CF6F5F20
:101960002981621710F38DCFE091CE01F091CF0164
:10197000309709F486CF8091D901882309F481CF6B
:1019800009958093BB0084E88093BC008091BC00E3
:1019900087FFFCCF1092D9018091BC00856C8093A9
:1019A000BC0074CFA093BC00D0CFE091D001F091E7
:1019B000D101309759F06230710544F080917D0279
:1019C0008093D90160917E0209955BCF8091CE0111
:1019D0009091CF01892B09F454CF672B09F451CF93
:1019E00080917D028093D9014CCFCF93C82F66237D
:1019F00041F061E082E10E94470461E083E10E94DE
:101A00004704CC0FC093BA0084E08093BC0085ECFF
:101A10008093BC007894CF9108959093D7018093E0
:101A2000D60108959093D5018093D40108959093A1
:101A3000D3018093D20108959093D1018093D00176
:101A400008959093CF018093CE010895ECEBF0E0E0
:101A500080818E7F80831092D7011092D6011092E0
:101A6000D5011092D4011092D3011092D20110929C
:101A7000D1011092D0011092CF011092CE010895A1
:101A80008091BC00881F8827881F08958093BB0021
:101A900084E88093BC008091BC0087FFFCCF8091DC
:101AA000B9008091BC00856C8093BC00089584ECE3
:101AB0008093BC008091BC0087FFFCCF8091BB006D
:101AC0009091BC00956C9093BC000895282F30E055
:101AD00021153105E1F0EDE7F2E080E090E054E817
:101AE00064EC019682179307ACF48038910591F06D
:101AF0006093BC004091BC0047FFFCCF4091BB000D
:101B000041938217930719F08038910551F78DE7BB
:101B100092E008955093BC00EDCF0097C1F0FB0117
:101B200020812223A1F03196860F971F34E820935D
:101B3000BB003093BC002091BC0027FFFCCF20915C
:101B4000B900E817F90719F021912111F0CF089594
:101B50001F93CF93DF93EC01162F68EE73E00E9482
:101B60008A240097C9F0FE0124912223A9F031961E
:101B70008C0F9D1F34E82093BB003093BC00209154
:101B8000BC0027FFFCCF2091B900E817F90721F02E
:101B9000249131962111EFCF112361F08AE08093D7
:101BA000BB0084E88093BC008091BC0087FFFCCF21
:101BB0008091B900DF91CF911F910895ECEBF0E097
:101BC00080818E7F80831092D7011092D60110926F
:101BD000D5011092D4011092D3011092D20110922B
:101BE000D1011092D0011092CF011092CE0110922B
:101BF000BA0010820895ECEBF0E08081856C808360
:101C00000895CF93DF93C82FD62F60911F010E94B4
:101C10008904C63009F460C050F0CA30C1F0CB303E
:101C200009F44AC0C93031F1DF91CF910895C33032
:101C3000A1F1C530C9F7DD2309F459C0DF3F09F42C
:101C4000B3C083E284BD83E085BDD8BDEDCFDD2385
:101C500009F48CC0DF3F09F498C081E280938000D2
:101C600083E0809381006D2F70E070938B00609310
:101C70008A00DACFDD2309F46AC0DF3F09F4ACC083
:101C800081E88093800083E0809381006D2F70E075
:101C90007093890060938800C7CFDD2309F449C0A1
:101CA000DF3F09F48BC081E28093B00084E0809331
:101CB000B100D093B400B8CFDD2369F1DF3F09F460
:101CC000A4C081E88093B00084E08093B100D093F9
:101CD000B300DF91CF910895DD2399F0DF3F09F440
:101CE0008AC083E884BD83E085BDD7BD9DCF14BC89
:101CF00015BC18BC6091200185E0DF91CF910C9458
:101D0000470414BC15BC17BC6091200186E0DF912C
:101D1000CF910C9447041092B00082E08093B10000
:101D20001092B300609120018BE0DF91CF910C9471
:101D300047041092B00082E08093B1001092B4008A
:101D40006091200183E0DF91CF910C9447041092C1
:101D5000800010928100109289001092880060919A
:101D6000200189E0DF91CF910C944704109280000C
:101D70001092810010928B0010928A0060912001D5
:101D80008AE0DF91CF910C9447041092800010926A
:101D9000810010928B0010928A00609121018AE0EC
:101DA000DF91CF910C94470414BC15BC18BC609112
:101DB000210185E0DF91CF910C9447041092B0008F
:101DC00082E08093B1001092B4006091210183E021
:101DD000DF91CF910C944704109280001092810003
:101DE00010928900109288006091210189E0DF91B2
:101DF000CF910C94470414BC15BC17BC6091210111
:101E000086E0DF91CF910C9447041092B00082E0FD
:101E10008093B1001092B300609121018BE0DF91BB
:101E2000CF910C94470487E880937A0080E48093F4
:101E30007C008AE090E00E94A80561E08DE00E94AD
:101E4000890460E08DE00C944704CF93C82F88305C
:101E5000C0F480917A0087FF18C0C064C0937C00F2
:101E600080917A00806480937A0080917A0086FD68
:101E7000FCCF809178002091790090E0922BCF9157
:101E8000089580E090E0CF91089587E880937A00EC
:101E900080E480937C008AE090E00E94A80561E0E5
:101EA0008DE00E94890460E08DE00E944704D5CF58
:101EB00080917A0087FF13C088EC80937C0080912A
:101EC0007A00806480937A0080917A0086FDFCCF4E
:101ED000809178002091790090E0922B089587E816
:101EE00080937A0080E480937C008AE090E00E94F6
:101EF000A80561E08DE00E94890460E08DE00E9409
:101F00004704DACF80917A0087FF13C08EE4809374
:101F10007C0080917A00806480937A0080917A00BE
:101F200086FDFCCF809178002091790090E0922B83
:101F3000089587E880937A0080E480937C008AE0AB
:101F400090E00E94A80561E08DE00E94890460E0B5
:101F50008DE00E944704DACFCF92DF92EF92FF929A
:101F60000F931F93CF93DF938C016A017B018091C4
:101F70007A0087FF2AC088EC80937C0080917A00E9
:101F8000806480937A0080917A0086FDFCCFC091B6
:101F9000780080917900D0E0D82B0115110549F027
:101FA00020E030E0A901C701B6010E94DB1F8111CA
:101FB0001FC0CE0181529140DF91CF911F910F91AF
:101FC000FF90EF90DF90CF90089587E880937A009C
:101FD00080E480937C008AE090E00E94A80561E0A4
:101FE0008DE00E94890460E08DE00E944704C3CF29
:101FF000BE01601B710B80E090E00E947820A70179
:1020000096010E94DF1F0E944720CB01D5CF1F926F
:102010000F920FB60F9211242F933F934F935F931C
:102020006F937F938F939F93AF93BF93CF93DF93E0
:10203000EF93FF9380917A00877F80937A00E091FD
:102040006102F09162023097F1F080917800209166
:10205000790090E0922B0995109262021092610231
:10206000FF91EF91DF91CF91BF91AF919F918F91B0
:102070007F916F915F914F913F912F910F900FBE84
:102080000F901F901895C0915F02D0916002209729
:1020900039F3609178008091790070E0782B80911D
:1020A000040190910501681B790B80E090E00E948B
:1020B000782020910001309101014091020150915E
:1020C00003010E94DF1F0E944720CB01FE010995FA
:1020D0001092600210925F02C3CF1F93CF93DF93E1
:1020E000182FEB01883070F480917A0087FF0FC0C1
:1020F00080917A0086FD06C02091610230916202D3
:10210000232BE1F080E0DF91CF911F91089587E8C4
:1021100080937A0080E480937C008AE090E00E94C3
:10212000A80561E08DE00E94890460E08DE00E94D6
:10213000470480917A0086FFDFCFE4CF20915F02D1
:1021400030916002232BF1F6D0936202C0936102BA
:10215000106410937C0080917A00886480937A00E8
:10216000789481E0D0CFCF93DF93EC0180917A0017
:1021700087FF0EC080917A0086FD06C02091610223
:1021800030916202232BB9F080E0DF91CF91089566
:1021900087E880937A0080E480937C008AE090E076
:1021A0000E94A80561E08DE00E94890460E08DE056
:1021B0000E944704DFCF80915F0290916002892BDB
:1021C00019F7D0936202C093610288EC80937C007F
:1021D00080917A00886480937A00789481E0D5CFEA
:1021E000CF92DF92EF92FF920F931F93CF93DF93E3
:1021F00000D0CDB7DEB78C016A017B0180917A00F7
:1022000087FF16C080917A0086FD06C0409161026A
:1022100050916202452B19F180E00F900F90DF91F1
:10222000CF911F910F91FF90EF90DF90CF90089585
:1022300087E880937A0080E480937C008AE090E0D5
:1022400029833A830E94A80561E08DE00E948904F9
:1022500060E08DE00E9447043A812981D3CF8091CC
:102260005F0290916002892BB9F63093600220934F
:102270005F0201151105A9F020E030E0A901C701B6
:10228000B6010E94DB1F882361F0109305010093C3
:102290000401C0920001D0920101E0920201F0928B
:1022A000030188EC80937C0080917A00886480939D
:1022B0007A00789481E0B1CFCF93DF93EC018091E5
:1022C0007A0087FF0EC080917A0086FD06C02091BB
:1022D000610230916202232BB9F080E0DF91CF914F
:1022E000089587E880937A0080E480937C008AE0F8
:1022F00090E00E94A80561E08DE00E94890460E002
:102300008DE00E944704DFCF80915F0290916002D0
:10231000892B19F7D0936202C09361028EE48093F7
:102320007C0080917A00886480937A00789481E0C0
:10233000D5CF0F931F93CF93DF93182FD62F0FB7BF
:10234000F894C8E06D2F661F6627661F812F0E94D4
:10235000A418DD0FC150B1F70FBFDF91CF911F91CE
:102360000F910895382F562F80916602882361F0CF
:1023700080916502622F70E0882389F080E090E010
:10238000742B832B952B089580916502642F70E048
:1023900081110BC080E090E0832B752B089580E0C5
:1023A00090E0742B932B852B089580E090E0732BA5
:1023B000852B08958F929F92AF92BF92CF92DF921A
:1023C000EF92FF921F93CF93DF936B017C011FB7B6
:1023D000F89480916602882359F1812C912CA12CCC
:1023E00020E8B22ED0E2C0E061E0D701C60188212A
:1023F0009921AA21BB21892B8A2B8B2B09F460E020
:10240000809168020E94A418CC0CDD1CEE1CFF1CFD
:10241000CF5FCD1748F31FBFDF91CF911F91FF9082
:10242000EF90DF90CF90BF90AF909F908F900895E6
:10243000812C912C90E8A92EB12CD8E1D4CF0F9308
:10244000CF93C62F80936802609367024093660221
:102450002093650210920503109206031092070361
:10246000109208034423D9F1211182C040E050E0CA
:1024700060E07FEF4093090350930A0360930B03DE
:1024800070930C0340E050E06FEF70E04093010365
:1024900050930203609303037093040340E05FEFE3
:1024A00060E070E04093FD025093FE026093FF02F3
:1024B000709300034FEF50E060E070E040930D0335
:1024C00050930E0360930F037093100301113BC0F0
:1024D0008091630290916402CF910F910895211130
:1024E00058C040E050E06FEF70E040930903509314
:1024F0000A0360930B0370930C0340E05FEF60E00E
:1025000070E04093010350930203609303037093C0
:1025100004034FEF50E060E070E04093FD02509301
:10252000FE026093FF02709300034FEF5FEF6FEFC7
:1025300070E040930D0350930E0360930F0370936C
:102540001003002329F280916302909164020097A6
:1025500011F00E94B42264E070E08C2F90E00E94A1
:1025600000228093630290936402CF910F910895AB
:1025700040E050E06FEF70E04093090350930A038E
:1025800060930B0370930C0340E050E060E07FEF3A
:102590007DCF40E05FEF60E070E04093090350932F
:1025A0000A0360930B0370930C0340E050E06FEF5D
:1025B00070E0A7CF5F926F927F928F929F92AF92BF
:1025C000BF92CF92DF92EF92FF920F931F93CF9320
:1025D000DF93E0916302F0916402309709F44BC0FD
:1025E00080916702882309F446C000E010E0C0E053
:1025F000D0E0E00FF11FC080D180E280F3806FB6A1
:10260000F89480916602882371F1812C912CA12C81
:1026100060E8B62E70E2772E512C61E0D701C6013A
:1026200088219921AA21BB21892B8A2B8B2B09F484
:1026300060E0809168020E94A418CC0CDD1CEE1CA6
:10264000FF1C5394571448F36FBE21960C5F1F4F25
:102650008091670290E0C817D9076CF4E09163029B
:10266000F0916402C6CF812C912C40E8A42EB12CAD
:1026700058E1752ED1CFDF91CF911F910F91FF902F
:10268000EF90DF90CF90BF90AF909F908F907F9012
:102690006F905F900895809163029091640200971B
:1026A00069F040916702442349F050E0440F551F00
:1026B000440F551F60E070E00C94832408958091CE
:1026C000630290916402009731F00E94B42210924C
:1026D0006402109263020895EF92FF920F931F938A
:1026E000CF93DF93009163021091640201151105ED
:1026F00099F120916702222379F10D5F1F4FEC01C0
:10270000E12CF12CF801339740E06081CE010E946A
:102710009708F801329740E06081CE0101960E944F
:102720009708F801319740E06081CE0102960E943F
:10273000970840E0F8016081CE0103960E94970857
:10274000FFEFEF1AFF0A24960C5F1F4F809167027C
:1027500090E0E816F906B4F2DF91CF911F910F9146
:10276000FF90EF900895EF92FF920F931F93CF93F6
:10277000DF9300916302109164020115110579F154
:1027800020916702222359F10D5F1F4FEC01E12CCC
:10279000F12CCE010E94AE08F80133978083CE0160
:1027A00001960E94AE08F80132978083CE0102960E
:1027B0000E94AE08F80131978083CE0103960E94F3
:1027C000AE08F8018083FFEFEF1AFF0A24960C5F32
:1027D0001F4F8091670290E0E816F906D4F2DF916E
:1027E000CF911F910F91FF90EF9008953F924F92DC
:1027F0005F926F927F928F929F92AF92BF92CF9291
:10280000DF92EF92FF920F931F93CF93DF93CDB799
:10281000DEB72A970FB6F894DEBF0FBECDBF8C018E
:102820007A876987FC01608170E080E090E00E9417
:10283000782020E030E04FE753E40E94DF1F20E0E3
:1028400030E843EB53E40E947D212B013C0120E062
:1028500030E044EB53E40E94DB1F87FF0EC020E012
:1028600030E0A901B201C3010E94DB1F87FF21C133
:10287000412C512C612C712C06C0412C512C94EB15
:1028800083E4692E782EF801618170E080E090E0A9
:102890000E947A206B017C0120E030E048EC52E499
:1028A0000E94DB1F87FF0DC020E030E0A901C701B7
:1028B000B6010E94DB1F87FFF1C0C12CD12C76012D
:1028C00006C0C12CD12CA0E8EA2EAFE3FA2EF80105
:1028D000628170E080E090E00E947A204B015C0110
:1028E00020E030E048EC52E40E94DB1F87FF0EC07E
:1028F00020E030E0A901C501B4010E94DB1F87FF81
:10290000DBC0312C812C912C540108C033243A9423
:10291000812C912CF0E8AF2EFFE3BF2E20E030E0B9
:10292000A901C701B6010E94DB1F882309F4DAC0A0
:1029300020E030E040E752E4B201C3010E94DF1F13
:102940002B013C010E94B5200E9447208B01882763
:1029500077FD8095982F0E947A209B01AC01C301DE
:10296000B2010E94761F2B013C01A701960160E095
:1029700070E080E89FE30E94761FA50194010E9409
:102980007D2169837A838B839C83A7019601C30190
:10299000B2010E947D219B01AC0160E070E080E803
:1029A0009FE30E94761FA50194010E947D216D8303
:1029B0007E838F839887A301920160E070E080E8B6
:1029C0009FE30E94761FA70196010E947D219B0133
:1029D000AC0160E070E080E89FE30E94761FA501F3
:1029E00094010E947D216B017C010230110509F4E4
:1029F000C9C064F50115110509F491C00130110534
:102A000009F0D9C020E030E04FE753E46D817E81CA
:102A10008F8198850E947D210E94E0210E944C2098
:102A2000E985FA856283318220E030E04FE753E4A4
:102A300069817A818B819C810E947D210E94E021A5
:102A40000E944C20E985FA85608351C0033011054E
:102A500009F47EC00430110509F0ADC020E030E07B
:102A60004FE753E40E947D210E94E0210E944C2008
:102A7000E985FA85628320E030E04FE753E469811D
:102A80007A818B819C810E947D210E94E0210E949D
:102A90004C20E985FA856183308229C020E030E04E
:102AA00048EC52E4C701B6010E94DF1F6B017C01B4
:102AB0000ECF962D872DE5CE20E030E048EC52E495
:102AC000C501B4010E94DF1F4B015C0120E030E032
:102AD0004FE753E40E947D210E94E0210E944C2098
:102AE000362E1CCFE985FA853082318232822A96D1
:102AF0000FB6F894DEBF0FBECDBFDF91CF911F910F
:102B00000F91FF90EF90DF90CF90BF90AF909F908C
:102B10008F907F906F905F904F903F900895E985E0
:102B2000FA85328220E030E04FE753E40E947D21B5
:102B30000E94E0210E944C20E985FA85618320E013
:102B400030E04FE753E469817A818B819C8174CFB7
:102B500020E030E04FE753E469817A818B819C81EA
:102B60000E947D210E94E0210E944C20E985FA8587
:102B7000628320E030E04FE753E46D817E818F81F6
:102B8000988581CF20E030E04FE753E469817A8176
:102B90008B819C810E947D210E94E0210E944C201B
:102BA000E985FA856283318220E030E04FE753E423
:102BB000C701B60141CFE985FA85328220E030E0D5
:102BC0004FE753E469817A818B819C810E947D214A
:102BD0000E94E0210E944C20E985FA85618320E073
:102BE00030E04FE753E46D817E818F81988524CF5B
:102BF0003F924F925F926F927F928F929F92AF928D
:102C0000BF92CF92DF92EF92FF920F931F93CF93D9
:102C1000DF93CDB7DEB72C970FB6F894DEBF0FBEAB
:102C2000CDBFF62EB42E322E682F70E080E090E0FB
:102C30000E94782020E030E04FE753E40E94DF1F3D
:102C400020E030E843EB53E40E947D213B018C01FE
:102C500020E030E044EB53E40E94DB1F87FF2AC0F2
:102C600020E030E0A901B301C8010E94DB1F87FF0B
:102C700004C0612C712C00E010E06F2D70E080E04A
:102C800090E00E947A206B017C0120E030E048EC6B
:102C900052E40E94DB1F87FF12C020E030E0A90150
:102CA000C701B6010E94DB1F87FF30C1C12CD12CA8
:102CB00076010BC0612C712C04EB13E4DECFC12C28
:102CC000D12CB0E8EB2EBFE3FB2E6B2D70E080E043
:102CD00090E00E947A204B015C0120E030E048EC5B
:102CE00052E40E94DB1F87FF11C020E030E0A90101
:102CF000C501B4010E94DB1F87FF13C119821A822C
:102D00001B821C82812C912C54010EC08FEF90E00D
:102D1000A0E0B0E089839A83AB83BC83812C912CA3
:102D2000A0E8AA2EAFE3BA2E20E030E0A901C70147
:102D3000B6010E94DB1F882309F410C120E030E0B7
:102D400040E752E4B301C8010E94DF1F2B013C01A0
:102D50000E94B5200E9447208B01882777FD80952F
:102D6000982F0E947A209B01AC01C301B2010E94FE
:102D7000761F2B013C01A701960160E070E080E81E
:102D80009FE30E94761FA50194010E947D216D831F
:102D90007E838F839887A7019601C301B2010E94A9
:102DA0007D219B01AC0160E070E080E89FE30E9420
:102DB000761FA50194010E947D2169877A878B8700
:102DC0009C87A301920160E070E080E89FE30E948D
:102DD000761FA70196010E947D219B01AC0160E056
:102DE00070E080E89FE30E94761FA50194010E9495
:102DF0007D216B017C010230110509F47AC10CF0D0
:102E000050C00115110509F401C10130110509F087
:102E100059C120E030E04FE753E469857A858B851E
:102E20009C850E947D210E94E0216B017C0120E0B5
:102E300030E04FE753E46D817E818F8198850E9459
:102E40007D210E94E0214B015C01C701B6010E9477
:102E50004C20C62ED12CE12CF12CC501B4010E94CE
:102E60004C20462E512C612C712C20916602211190
:102E700080C020916502211111C1C6017727662704
:102E8000C980DA80EB80FC803E2D2D2D1C2D002783
:102E9000602B712B822B932B642975298629972906
:102EA00084C00330110509F4E2C00430110509F0B3
:102EB00009C120E030E04FE753E40E947D210E94E9
:102EC000E0216B017C0120E030E04FE753E46D81AD
:102ED0007E818F8198850E947D210E94E0210E9441
:102EE0004C20862E912CA12CB12CC701B6010E943A
:102EF0004C20C62ED12CE12CF12C49805A806B80BD
:102F00007C8089829A82AB82BC822EC020E030E035
:102F100048EC52E4C701B6010E94DF1F6B017C013F
:102F2000D4CE20E030E048EC52E4C501B4010E9468
:102F3000DF1F4B015C0120E030E04FE753E40E94CB
:102F40007D210E94E0210E944C20262F30E040E0AD
:102F500050E029833A834B835C83E6CE49805A80D4
:102F60006B807C807301620120916602222309F448
:102F700080CF20916502222381F129813A814B8102
:102F80005C81922F8827772766277601DD24CC2461
:102F90006C297D298E299F296329362D252D142DF5
:102FA0000027602B712B822B932B2C960FB6F89455
:102FB000DEBF0FBECDBFDF91CF911F910F91FF906C
:102FC000EF90DF90CF90BF90AF909F908F907F90C9
:102FD0006F905F904F903F9008959C2D88277727A2
:102FE0006627C980DA80EB80FC80960111270027D4
:102FF000602B712B822B932B6329362D252D142DBD
:103000000027602B712B822B932BCFCF20E030E059
:103010004FE753E40E947D210E94E0216B017C0177
:1030200020E030E04FE753E46D817E818F81988509
:103030000E947D210E94E0212B013C01C701B601C5
:103040000E944C20862E912CA12CB12CC301B201E0
:103050000E944C20462E512C612C712CC980DA80A4
:10306000EB80FC8089829A82AB82BC827DCF20E09B
:1030700030E04FE753E46D817E818F8198850E9417
:103080007D210E94E0216B017C0120E030E04FE7D0
:1030900053E469857A858B859C851DCF29813A818A
:1030A0004B815C81C90177276627FE2CED2CDC2C37
:1030B000CC246C297D298E299F296429752986298C
:1030C000972973CF20E030E04FE753E46D817E8194
:1030D0008F8198850E947D210E94E0216B017C01F7
:1030E00020E030E04FE753E469857A858B859C8545
:1030F0009FCF20E030E04FE753E46D817E818F81E8
:1031000098850E947D210E94E0214B015C0120E016
:1031100030E04FE753E4C701B6010E947D210E94D1
:10312000E0212B013C01C501B4010E944C20C62EB8
:10313000D12CE12CF12CC301B2010E944C20462E6F
:10314000512C612C712C10CF282F30E02830310504
:1031500064F59BB121E030E002C0220F331F8A9555
:10316000E2F7A901492BCA014BB12095309550E0F7
:1031700024233523662309F474C08BB900000000B2
:10318000000000000000000000000000000000003F
:103190000000000000002BB900000000000000004B
:1031A000000000000000000008952E3031056CF58D
:1031B00045B12850310981E090E002C0880F991F85
:1031C0002A95E2F79C01242B45B18095909550E01B
:1031D00084239523662309F459C025B90000000013
:1031E00000000000000000000000000000000000DF
:1031F00000000000000085B9000000000000000091
:10320000000000000000000008952531310544F55C
:1032100048B12E50310981E090E002C0880F991F1B
:103220002A95E2F79C01242B48B18095909550E0B7
:103230008423952361113FC028B9000000000000DD
:103240000000000088B9000000000000000000003D
:10325000000000000000000000000000000000006E
:1032600008958BB9000000000000000000002BB999
:10327000000000000000000000000000000000004E
:1032800000000000000000000000089525B90000C3
:10329000000000000000000085B9000000000000F0
:1032A000000000000000000000000000000000001E
:1032B00000000000089528B9000000000000000090
:1032C00000000000000000000000000000000000FE
:1032D000000088B9000000000000000000000000AD
:1032E000000000000895A3E1B0E0E9E7F9E10C94E3
:1032F000391F7C011B016A01FC0117821682838140
:1033000081FF66C3BE016F5F7F4F4B01F701938161
:10331000F10193FD859193FF81911F01882309F4A9
:1033200053C3853239F493FD859193FF81911F0139
:10333000853239F4B70190E00E9495245601650169
:10334000E5CF10E0512C20E02032A0F48B3269F060
:1033500030F4803259F0833269F420612CC08D3210
:1033600039F0803339F4216026C02260246023C004
:10337000286021C027FD27C030ED380F3A3078F49F
:1033800026FF06C0FAE01F9F300D1124132F13C033
:103390006AE0569E300D1124532E20620CC08E32EE
:1033A00021F426FD11C3206406C08C3611F4206878
:1033B00002C0883641F4F10193FD859193FF81911C
:1033C0001F018111C1CF9BEB980F933018F420613E
:1033D000805E06C09BE9980F933008F0AAC12F7E4B
:1033E00026FF16E02F73722E853621F4F22FF0643B
:1033F0007F2E08C0863621F4622F6068762E02C0C8
:103400001111115077FE07C01C3348F44424439433
:10341000410E27E00BC0183030F4212F06C027E002
:103420004CE3442E03C027E017E0412C560174E022
:10343000A70EB11CF6016081718182819381042DF8
:10344000A4010E94A0236C01098100FF02C003FFB8
:1034500006C071FC07C072FC08C0612C08C03DE2C8
:10346000632E05C02BE2622E02C090E2692E802FEF
:103470008C7099F1662011F084E001C083E085151D
:1034800010F0512C0BC0581A73FC08C0B70180E231
:1034900090E00E9495245A94C9F7F3CF662029F052
:1034A000B701862D90E00E94952403FD03C00CE631
:1034B00010E002C008E610E0F72DF0717F2EF80151
:1034C0008491882309F476C271108052B70190E08C
:1034D0000E9495240F5F1F4FF2CF77FE0FC04C0C58
:1034E00004FF04C08A81813309F44A94141474F5EA
:1034F000F8E0F41578F588E0482E2CC076FC2AC058
:10350000812F90E08C159D059CF06CEFC6166FEF37
:10351000D60674F0772D7068772E0AC0E2E0F0E0EE
:10352000EC0FFD1FE10FF11D8081803319F4115064
:103530001111F4CF77FE0EC044244394410E812F25
:1035400090E0C816D9062CF41C1904C044244394F6
:1035500001C010E077FE07C01C141D043CF4960166
:103560002F5F3F4F05C025E030E002C021E030E092
:10357000662011F02F5F3F4F112331F0412F50E0B3
:103580004F5F5F4F240F351F452D50E0241735073F
:1035900014F4521A01C0512C872D897049F455201A
:1035A00039F0B70180E290E00E9495245A94F7CF59
:1035B000662029F0B701862D90E00E94952473FCC7
:1035C00009C0552039F0B70180E390E00E949524AE
:1035D0005A94F7CF77FE5FC09C2D8D2DD7FE02C089
:1035E00090E080E0692E782E40E050E0C60184191A
:1035F00091099D878C87960126193709280D391D59
:10360000812F90E0EE27FF27E81BF90BFF87EE875D
:10361000FFEF6F167F0669F4B7018EE290E02B8B07
:103620003A8B488B598B0E949524598948893A894D
:103630002B89C614D70454F06C857D8566157705F3
:103640002CF4F901E40FF51F818101C080E371E0E2
:10365000671A71084F5F5F4FEE85FF856E167F0614
:103660006CF0B70190E02B8B3A8B488B598B0E9402
:1036700095242B893A8948895989CACF6C147D04CD
:1036800039F49A81963318F4953311F404FF81E3E9
:10369000B70190E04BC08A81813309F00F7EB701FA
:1036A00090E00E949524111105C074FE18C085E4B5
:1036B00090E017C0B7018EE290E00E94952482E06E
:1036C00066246394680EF401E80FF11D8081B70150
:1036D00090E00E949524115041F3862DF1CF85E6AC
:1036E00090E0B7010E949524D7FC05C0C114D10415
:1036F00039F404FF05C0D194C194D1088DE201C012
:103700008BE2B70190E00E94952480E36AE0C61640
:10371000D1042CF08F5FFAE0CF1AD108F7CFB701B0
:1037200090E00E949524B701C601C0960E9495249E
:1037300041C1833631F0833779F0833509F058C0C1
:1037400021C0560172E0A70EB11CF6018081898369
:1037500001E010E0640114C05601F2E0AF0EB11CAC
:10376000F601C080D18026FF03C0612F70E002C047
:103770006FEF7FEFC6012B8B0E948A248C012B896F
:103780002F7715C05601F2E0AF0EB11CF601C080D4
:10379000D18026FF03C0612F70E002C06FEF7FEF82
:1037A000C6012B8B0E9478248C012B892068722EF5
:1037B00023FD1AC0852D90E008171907A8F4B7015A
:1037C00080E290E00E9495245A94F4CFF60177FCB1
:1037D000859177FE81916F01B70190E00E94952459
:1037E00051105A94015011090115110579F7E2C0E1
:1037F000843611F0893651F5560127FF09C0F4E0EF
:10380000AF0EB11CF60160817181828193810AC083
:10381000F2E0AF0EB11CF60160817181882777FD5F
:103820008095982F022F0F7697FF08C0909580956E
:10383000709561957F4F8F4F9F4F00682AE030E071
:10384000A4010E94F724C82EC8183EC0022F853755
:1038500021F40F7E2AE030E01DC0097F8F3691F001
:1038600018F4883559F0B0C0803719F0883711F056
:10387000ABC0006104FF09C0046007C024FF08C09A
:10388000066006C028E030E005C020E130E002C05C
:1038900020E132E0560107FF09C0F4E0AF0EB11C91
:1038A000F601608171818281938108C0F2E0AF0EE0
:1038B000B11CF6016081718180E090E0A4010E945A
:1038C000F724C82EC8180F7706FF0BC0202F2E7FB5
:1038D000C11650F404FF0AC002FD08C0202F2E7E3E
:1038E00005C0DC2C202F03C0DC2C01C0D12E24FF0E
:1038F0000DC0FE01EC0DF11D8081803311F4297E95
:1039000009C022FF06C0D394D39404C0822F8678C6
:1039100009F0D39423FD13C020FF06C01C2DD5143D
:1039200018F4150D1D19D52CD51468F4B70180E2D3
:1039300090E02B8B0E949524D3942B89F5CFD5143E
:1039400010F45D1801C0512C24FF12C0B70180E3B0
:1039500090E02B8B0E9495242B8922FF17C021FF1A
:1039600003C088E590E002C088E790E0B7010CC092
:10397000822F867859F021FD02C080E201C08BE2DF
:1039800027FD8DE2B70190E00E949524C11638F41E
:10399000B70180E390E00E9495241150F7CFCA94BC
:1039A000F401EC0DF11D8081B70190E00E94952497
:1039B000C110F5CF552009F4C2CCB70180E290E0E8
:1039C0000E9495245A94F6CFF7018681978102C010
:1039D0008FEF9FEF6396E2E10C94551F6F927F92F9
:1039E0008F929F92AF92BF92CF92DF92EF92FF920F
:1039F0000F931F9380E895E20E94FC0182E290E021
:103A000090936B0280936A024C0184E08093690278
:103A100086E080936E0297E090936F02809370022D
:103A200088E0809371029093720288E293E290930F
:103A300079028093780280E080937502809374020B
:103A40008093730280937C0283E290E06C019093F8
:103A50006D0280936C0280E090E05C0190937B02A9
:103A600080937A021AE5109376026091180184E03F
:103A70000E946D017401C4010E94420195E08530ED
:103A800008F0982F8B3508F4192F10937602612FC8
:103A9000772724E630E0A501CA010E94ED1E90932D
:103AA0007B0280937A027093790260937802C70157
:103AB000612F0E944501C6010E94420191E08030C1
:103AC00009F490E0917090937C02809113016AE96F
:103AD0007DE10E949C018CED9DE10E94BD038FED74
:103AE0009DE10E94C00383E260E00E94B00383E78F
:103AF00092E05C010EEE1DE184E29EE14C018AE45D
:103B00009EE13C0186E068E047E0950174016301B5
:103B10000E94551EF7CF60911A0184E00E9469014E
:103B200088EC90E00E94E3006091190184E00E941B
:103B30006901089580917A0290917B0260917802E8
:103B4000709179024BE85DE10E940D0108951F9389
:103B5000873009F422C0863009F02CC085E065303A
:103B600008F0862F1AE56B3508F4182F10937602AB
:103B7000612F772724E630E040E050E0CA010E9440
:103B8000ED1E90937B0280937A027093790260938A
:103B9000780282E290E0612F0BC021E0603009F4EE
:103BA00020E0822F817080937C0283E290E0622F7C
:103BB0000E9445011F9108950E94A71D0895873016
:103BC00031F0863041F480917602992708958091F2
:103BD0007C029927089580E0992708951F9390917A
:103BE0007602892F8B5F21E0891708F022C095E0CB
:103BF000203009F423C01AE58B3508F4192F1093EF
:103C00007602612F772724E630E040E050E0CA01D9
:103C10000E94ED1E90937B0280937A02709379024A
:103C20006093780282E290E0612F0E9445011F912B
:103C3000089520E095E0203009F0DDCF982F1AE5B7
:103C40008B3508F4DBCFDBCF1F9390917602955034
:103C500085E0953008F0892F1AE59B3508F4182F78
:103C600010937602612F772724E630E040E050E0A1
:103C7000CA010E94ED1E90937B0280937A0270939A
:103C800079026093780282E290E0612F0E94450100
:103C90001F91089581E060917C02682760937C0207
:103CA00083E290E00E94450108957F928F929F9257
:103CB000AF92BF92CF92DF92EF92FF920F931F933A
:103CC0004901B42EA62E0E946601782E8A2D0E94EC
:103CD0006601A82E8B2D0E946601B401D4011296B4
:103CE000982F91709030B9F4FB019281903099F047
:103CF0004B01F601182F7D01099581E090E00E94AB
:103D0000E000D701812F972D9170F40191939A2DA6
:103D10009170908349C0FB0131914F0190814A2DF0
:103D2000242F2170572D203051F0252F2170203065
:103D300079F0903079F4303009F022C02FC0252F6F
:103D400021702030C9F09030C9F0303031F426C0F5
:103D5000903089F7303009F021C08B01F701F82E3F
:103D60006D01099581E090E00E94E000572D4A2DF9
:103D7000D6018F2DB80112C0903039F3303071F474
:103D80007B01F801182F6D01099581E090E00E94F8
:103D9000E000572D4A2DD601812FB7015170FB014C
:103DA00050834170F401408381708C931F910F9177
:103DB000FF90EF90DF90CF90BF90AF909F908F904B
:103DC0007F9008951092B00082E08093B100EEE6FB
:103DD000F0E08081816080830895DB018F939F9361
:103DE0000E942E1FBF91AF91A29F800D911DA39F96
:103DF000900DB29F900D11240895A1E21A2EAA1BD6
:103E0000BB1BFD010DC0AA1FBB1FEE1FFF1FA2178A
:103E1000B307E407F50720F0A21BB30BE40BF50B87
:103E2000661F771F881F991F1A9469F76095709510
:103E3000809590959B01AC01BD01CF010895A29F93
:103E4000B001B39FC001A39F700D811D1124911D6E
:103E5000B29F700D811D1124911D08950E941F1F96
:103E6000A59F900DB49F900DA49F800D911D1124CE
:103E700008952F923F924F925F926F927F928F920E
:103E80009F92AF92BF92CF92DF92EF92FF920F93E9
:103E90001F93CF93DF93CDB7DEB7CA1BDB0B0FB6F3
:103EA000F894DEBF0FBECDBF09942A8839884888B0
:103EB0005F846E847D848C849B84AA84B984C88446
:103EC000DF80EE80FD800C811B81AA81B981CE0F3D
:103ED000D11D0FB6F894DEBF0FBECDBFED01089522
:103EE000EE0FFF1F0590F491E02D09945058BB2769
:103EF000AA270ED0B1C1A2D130F0A7D120F031F461
:103F00009F3F11F41EF497C10EF4E095E7FB64C1E6
:103F1000E92FB3D180F3BA176207730784079507B7
:103F200018F071F49EF5E2C10EF4E0950B2EBA2F55
:103F3000A02D0B01B90190010C01CA01A0011124AF
:103F4000FF27591B99F0593F50F4503E68F11A165B
:103F5000F040A22F232F342F4427585FF3CF4695EC
:103F600037952795A795F0405395C9F77EF41F160E
:103F7000BA0B620B730B840BBAF09150A1F0FF0FD8
:103F8000BB1F661F771F881FC2F70EC0BA0F621FC4
:103F9000731F841F48F4879577956795B795F795B4
:103FA0009E3F08F0B3CF9395880F08F09927EE0F46
:103FB000979587950895ECD008F481E008950CD08A
:103FC0004BC143D140F03AD130F021F45F3F19F0BA
:103FD00003C151118CC12FC150D198F39923C9F35A
:103FE0005523B1F3951B550BBB27AA2762177307FF
:103FF000840738F09F5F5F4F220F331F441FAA1FB3
:10400000A9F333D00E2E3AF0E0E830D09150504072
:10401000E695001CCAF729D0FE2F27D0660F771F20
:10402000881FBB1F261737074807AB07B0E809F002
:10403000BB0B802DBF01FF2793585F4F2AF09E3F97
:10404000510568F0C9C053C15F3FECF3983EDCF303
:10405000869577956795B795F7959F5FC9F7880F10
:10406000911D9695879597F90895E1E0660F771F62
:10407000881FBB1F621773078407BA0720F0621BF3
:10408000730B840BBA0BEE1F88F7E095089504D0EC
:104090006894B1112CC10895F8D088F09F5790F022
:1040A000B92F9927B751A0F0D1F0660F771F881F5D
:1040B000991F1AF0BA95C9F712C0B13081F016D124
:1040C000B1E0089513C1672F782F8827B85F39F0C2
:1040D000B93FCCF3869577956795B395D9F73EF4BC
:1040E00090958095709561957F4F8F4F9F4F089564
:1040F000E89409C097FB3EF4909580957095619582
:104100007F4F8F4F9F4F9923A9F0F92F96E9BB2737
:104110009395F695879577956795B795F111F8CFB3
:10412000FAF4BB0F11F460FF1BC06F5F7F4F8F4F1E
:104130009F4F16C0882311F096E911C0772321F014
:104140009EE8872F762F05C0662371F096E8862FAC
:1041500070E060E02AF09A95660F771F881FDAF703
:10416000880F9695879597F90895A9D080F09F3785
:1041700040F491110EF0BBC060E070E080E89FEB6E
:10418000089526F41B16611D711D811D2BC045C0AD
:10419000990F0008550FAA0BE0E8FEEF1616170658
:1041A000E807F907C0F012161306E407F50798F0C0
:1041B000621B730B840B950B39F40A2661F0232BD9
:1041C000242B252B21F408950A2609F4A140A69555
:1041D0008FEF811D811D089597F99F6780E870E03A
:1041E00060E00895882371F4772321F09850872B9D
:1041F000762F07C0662311F499270DC09051862BA6
:1042000070E060E02AF09A95660F771F881FDAF752
:10421000880F9695879597F908959F3F31F09150B3
:1042200020F4879577956795B795880F911D96959A
:10423000879597F908959FEF80EC089500240A94DC
:104240001616170618060906089500240A94121671
:104250001306140605060895092E0394000C11F4A4
:10426000882352F0BB0F40F4BF2B11F460FF04C051
:104270006F5F7F4F8F4F9F4F089557FD9058440FAA
:10428000551F59F05F3F71F04795880F97FB991FB5
:1042900061F09F3F79F08795089512161306140672
:1042A000551FF2CF4695F1DF08C0161617061806FF
:1042B000991FF1CF86957105610508940895E5DF92
:1042C000A0F0BEE7B91788F4BB279F3860F4161634
:1042D000B11D672F782F8827985FF7CF8695779540
:1042E0006795B11D93959639C8F30895E894BB2757
:1042F00066277727CB0197F908950BD0ADCF9EDFC6
:1043000028F0A3DF18F0952309F066CF94CF11248D
:10431000EECFB3DFA0F3959FD1F3950F50E0551F7B
:10432000629FF001729FBB27F00DB11D639FAA270A
:10433000F00DB11DAA1F649F6627B00DA11D661F59
:10434000829F2227B00DA11D621F739FB00DA11D7A
:10435000621F839FA00D611D221F749F3327A00D34
:10436000611D231F849F600D211D822F762F6A2FD0
:1043700011249F5750408AF0E1F088234AF0EE0F55
:10438000FF1FBB1F661F771F881F91505040A9F762
:104390009E3F510570F020CFAACF5F3FECF3983ECF
:1043A000DCF3869577956795B795F795E7959F5FC9
:1043B000C1F7FE2B880F911D9695879597F9089563
:1043C00064DFE0F09E37D8F09639B8F49E3848F4B0
:1043D000672F782F8827985FF9CF8695779567950F
:1043E00093959539D0F3B62FB1706B0F711D811D68
:1043F00020F48795779567959395F4CE0ECF77CF78
:104400000F931F93CF93DF93869F8001879F100D9B
:10441000969F100D1124C8010E941C22EC010097E8
:1044200029F0A80160E070E00E948324CE01DF91B2
:10443000CF911F910F910895CF93DF938230910513
:1044400010F482E090E0E0911303F091140320E077
:1044500030E0A0E0B0E0309739F140815181481759
:104460005907B8F04817590771F482819381109762
:1044700029F013969C938E9312972CC0909314035B
:104480008093130327C02115310531F042175307DC
:1044900018F0A901DB0101C0EF019A01BD01DF01A4
:1044A0000280F381E02DD7CF21153105F9F0281BCB
:1044B000390B2430310580F48A819B8161157105A7
:1044C00021F0FB019383828304C0909314038093B3
:1044D0001303FE01329644C0FE01E20FF31F8193E5
:1044E000919322503109398328833AC020911103D6
:1044F00030911203232B41F420910B0130910C01D8
:1045000030931203209311032091090130910A0185
:104510002115310541F42DB73EB740910D01509161
:104520000E01241B350BE0911103F0911203E217E9
:10453000F307A0F42E1B3F0B2817390778F0AC01C6
:104540004E5F5F4F2417350748F04E0F5F1F5093A3
:104550001203409311038193919302C0E0E0F0E0D5
:10456000CF01DF91CF910895CF93DF93009709F4A6
:1045700087C0FC01329713821282C0911303D0913D
:104580001403209781F420813181280F391F8091F5
:104590001103909112038217930779F5F093120398
:1045A000E09311036DC0DE0120E030E0AE17BF07DD
:1045B00050F412964D915C9113979D014115510550
:1045C00009F1DA01F3CFB383A28340815181840FD3
:1045D000951F8A179B0771F48D919C911197840FF9
:1045E000951F02969183808312968D919C911397CB
:1045F000938382832115310529F4F0931403E0930A
:1046000013033EC0D9011396FC93EE9312974D917C
:104610005D91A40FB51FEA17FB0779F480819181A2
:10462000840F951F0296D90111969C938E938281D7
:10463000938113969C938E931297E0E0F0E08A8129
:104640009B81009719F0FE01EC01F9CFCE01029693
:1046500028813981820F931F209111033091120319
:104660002817390769F4309729F41092140310922F
:10467000130302C013821282D0931203C09311035A
:10468000DF91CF9108958F929F92AF92BF92CF9278
:10469000DF92EF92FF92CF93DF93EC0168817981F3
:1046A0008A819B81611571058105910521F464E280
:1046B00079ED8BE597E02DE133EF41E050E00E948A
:1046C000552549015A019B01AC01A7EAB1E40E94BA
:1046D0002E1F6B017C01ACEEB4EFA50194010E948A
:1046E0007725C60ED71EE81EF91EF7FE06C081E02C
:1046F000C81AD108E10880E8F80AC882D982EA829B
:10470000FB82C701B6019F77DF91CF91FF90EF90B9
:10471000DF90CF90BF90AF909F908F9008950E94B0
:10472000432308958FE091E00E944323089560930E
:104730000F0170931001809311019093120108955D
:10474000283008F027E03327DA01990F311D87FD63
:10475000916000966105710539F432602E5F3D93DA
:1047600030E32A95E1F708959F3F30F080387105D6
:10477000610509F03C5F3C5F3D93913008F0806833
:10478000911DDF93CF931F930F93FF92EF92192FF9
:10479000987F9695E92F96959695E90FFF27E65312
:1047A000FF4F99273327EE24FF24A701E701059047
:1047B0000894079428F4360FE71EF81E491F511D70
:1047C000660F771F881F991F0694A1F7059007941D
:1047D00028F4E70EF81E491F561FC11D770F881FCA
:1047E000991F661F0694A1F70590079428F4F80E08
:1047F000491F561FC71FD11D880F991F661F771F9E
:104800000694A1F70590079420F4490F561FC71F7F
:10481000D81F990F661F771F881F0694A9F78491E8
:104820001095177041F0D695C79557954795F79411
:10483000E7941A95C1F7E0E7F0E0689415901591B8
:1048400035916591959105907FE27395E118F10A94
:10485000430B560BC90BD009C0F7E10CF11E431FE7
:10486000561FC91FD01D7EF4703311F48A95E6CF10
:10487000E894015030F0080F0AF40027021708F4FA
:10488000202F2395022F7A3328F079E37D932A9500
:10489000E9F710C07D932A9589F606949795679558
:1048A000379517951794E118F10A430B560BC90B6E
:1048B000D00998F023957E9173957A3308F070E3D0
:1048C0007C932013B8F77E9170617D9330F08395CF
:1048D00071E37D9370E32A95E1F71124EF90FF9047
:1048E0000F911F91CF91DF91992787FD90950895A2
:1048F000FC010590615070400110D8F780959095AB
:104900008E0F9F1F0895DC0101C06D9341505040F0
:10491000E0F70895FC016150704001900110D8F754
:10492000809590958E0F9F1F08950F931F93CF939F
:10493000DF93182F092FEB018B8181FD03C08FEFCF
:104940009FEF20C082FF10C04E815F812C813D818E
:10495000421753077CF4E881F9819F012F5F3F4F95
:1049600039832883108306C0E885F985812F09954E
:10497000892B29F72E813F812F5F3F4F3F832E8365
:10498000812F902FDF91CF911F910F910895AEE06D
:10499000B0E0EDECF4E20C94471F0D891E898F897D
:1049A000988D26E02C831A83098397FF02C080E04C
:1049B00090E801979E838D83AE01455E5F4F698DC0
:1049C0007A8DCE0101960E9473194D815E8157FD4B
:1049D0000AC02F813885421753070CF49A01F80159
:1049E000E20FF31F10822E96E4E00C94631FFA018D
:1049F000AA27283051F1203181F1E8946F936E7F1E
:104A00006E5F7F4F8F4F9F4FAF4FB1E03ED0B4E00E
:104A10003CD0670F781F891F9A1FA11D680F791F4F
:104A20008A1F911DA11D6A0F711D811D911DA11D60
:104A300020D009F468943F912AE0269F1124301970
:104A4000305D3193DEF6CF010895462F4770405D0B
:104A50004193B3E00FD0C9F7F6CF462F4F70405DBA
:104A60004A3318F0495D31FD4052419302D0A9F715
:104A7000EACFB4E0A6959795879577956795BA950F
:104A8000C9F700976105710508959B01AC010A2ED5
:104A900006945795479537952795BA95C9F7620FAC
:104AA000731F841F951FA01D0895052E97FB1EF4EC
:104AB00000940E946C2557FD07D00E94FD1E07FC44
:104AC00003D04EF40C946C2550954095309521956B
:104AD0003F4F4F4F5F4F089590958095709561952A
:104AE0007F4F8F4F9F4F0895B7FF0C942E1F0E944A
:0C4AF0002E1F821B930B0895F894FFCF3B
:104AFC000000803F21010004070000150320000185
:104B0C00000000030201000001000103020100018A
:104B1C000001256C6400252E326600252E2A6600C5
:00000001FF
