:100000000C94DA000C9448090C9471090C940201C8
:100010000C9402010C9402010C9402010C94020154
:100020000C9402010C94EC0C0C9402010C94950AB3
:100030000C9402010C94710B0C94450A0C9402016F
:100040000C9402010C9402010C94030D0C94020117
:100050000C9402010C94E7130C9402010C9402011D
:100060000C9400100C9402016E616E00696E6600C3
:100070005374617274696E672E2E2E0043656E7420
:10008000657220627574746F6E207072657373652B
:1000900064004272696768746E65737320646F7779
:1000A0006E004272696768746E65737320757000C4
:1000B000537461727465640000407A10F35A00A0B2
:1000C000724E18090010A5D4E80000E87648170021
:1000D00000E40B54020000CA9A3B000000E1F50561
:1000E000000080969800000040420F000000A086AB
:1000F00001000000102700000000E80300000000DD
:100100006400000000000A00000000000100000080
:1001100000002C76D888DC674F0823DFC1DFAE599A
:10012000E1B1B796E5E3E453C63AE651997696E82D
:10013000E6C28426EB898C9B62ED407C6FFCEFBCB1
:100140009C9F40F2BAA56FA5F490055A2AF75C93DC
:100150006B6CF9676DC11BFCE0E40D47FEF520E612
:10016000B500D0ED902E0300943577050080841EF5
:10017000080000204E0A000000C80C333333330F50
:10018000986E12831141EF8D2114893BE65516CFED
:10019000FEE6DB18D1844B381BF77C1D901DA4BBF9
:1001A000E424203284725E228100C9F124ECA1E5AE
:1001B0003D27F41811241FBECFEFD8E0DEBFCDBF1E
:1001C00011E0A0E0B1E0E6E1FAE302C005900D9293
:1001D000AE33B107D9F723E0A0E4B1E001C01D922E
:1001E000A430B207E1F711E0C4EBD1E004C02297DC
:1001F000FE010E948419C23BD107C9F70E94040185
:100200000C94091D0C940000CF93DF930F93CDB78E
:10021000DEB7A1970FB6F894DEBF0FBECDBF80E862
:1002200095E20E94840680910601909107016091F9
:100230000401709105014091020150910301209148
:1002400000013091010188A399A36E8F7F8F4C8F9D
:100250005D8F2A8F3B8F0E9487062A8D3B8D4C8DA8
:100260005D8D6E8D7F8DE8A1F9A1898FCF01098DFC
:100270000E94890604E00093400182E290E090939E
:1002800043018093420123E230E030934501209303
:100290004401A6E0A0934601B7E0B0934701A093C4
:1002A0004801A8E0A0934901B0934A01AAE5A093B0
:1002B0004B0140E050E050934F0140934E0168E203
:1002C00073E270934D0160934C01B0E0B093500124
:1002D000609126018F8B988F802F4D8B5E8BBC8B0E
:1002E0002A8B3B8BA98B0E9449068F89988D0E948F
:1002F0002E0665E08530888B6F8708F073C08F8588
:1003000098899B3529898E872D8708F468C08D854B
:1003100080934B01682F772724E630E04D895E8972
:100320008C87CA010E94FF1890934F0180934E0161
:1003300070934D0160934C018F89988D6C850E945C
:1003400031068A899B890E942E0661E080306B8786
:1003500009F442C08B858170809350018091210106
:100360006EE373E00E9478068BE493E00E942C0811
:1003700084E693E00E942F080E941D0893E28A877A
:10038000892F6A850E941F0880910E0190910F01AC
:1003900060910C0170910D0140910A0150910B0187
:1003A0002091080130910901888799876E837F83A6
:1003B0004C835D832A833B830E9487062A813B818D
:1003C0004C815D816E817F81E885F9858983CF01CC
:1003D00009810E94890609C08C898B87BBCF8E85D5
:1003E0008D8795CF88898F878ACFFFCFCF93DF9373
:1003F000CDB7DEB723970FB6F894DEBF0FBECDBFE3
:10040000982F20E031E080302B839A83398309F4E0
:100410000AC0898123960FB6F894DEBF0FBECDBF08
:10042000DF91CF9108958B818983F3CFCF93DF93B1
:10043000CDB7DEB721970FB6F894DEBF0FBECDBFA4
:10044000982F8170998321960FB6F894DEBF0FBE66
:10045000CDBFDF91CF910895CF93DF93CDB7DEB7B6
:1004600029970FB6F894DEBF0FBECDBF982F863008
:100470009987688731F000C08985873009F430C0DA
:1004800047C085E0988595308F8308F026C08F811E
:100490009AE528852B358E839D8308F41BC08D81BA
:1004A00080934B01682F772724E630E040E050E04E
:1004B0008C83CA010E94FF1890934F0180934E01D4
:1004C00070934D0160934C0182E290E06C810E9438
:1004D00031061EC08E818D83E2CF88858F83D7CF72
:1004E00080E091E0288520308B839A8309F40DC049
:1004F0008A81982F91709093500123E230E0898394
:10050000C90169810E94310603C08B818A83F0CFC3
:1005100029960FB6F894DEBF0FBECDBFDF91CF9105
:100520000895CF93DF93CDB7DEB726970FB6F89433
:10053000DEBF0FBECDBF982F25E085308E839D8313
:100540002C8308F02EC08C819AE52E812B358B836D
:100550009A8308F423C08A8180934B01682F772700
:1005600024E630E040E050E08983CA010E94FF1891
:1005700090934F0180934E0170934D0160934C0115
:1005800082E290E069810E94310626960FB6F894C7
:10059000DEBF0FBECDBFDF91CF9108958B818A83DF
:1005A000DACF8E818C83CFCFCF93DF93CDB7DEB7F9
:1005B00022970FB6F894DEBF0FBECDBF982F817083
:1005C0008093500123E230E08A839983C9016A81D4
:1005D0000E94310622960FB6F894DEBF0FBECDBF43
:1005E000DF91CF910895CF93DF93CDB7DEB72397F7
:1005F0000FB6F894DEBF0FBECDBF90E0282F863037
:100600002B839A8339F000C08B8187309A8199833C
:1006100029F008C080914B01898304C0809150016A
:10062000898300C0898123960FB6F894DEBF0FBE80
:10063000CDBFDF91CF910895CF93DF93CDB7DEB7D4
:1006400021970FB6F894DEBF0FBECDBF6091280191
:1006500084E089830E94450688EC90E00E94CB05E7
:100660006091270189810E94450621960FB6F89472
:10067000DEBF0FBECDBFDF91CF91089580914E01B7
:1006800090914F0160914C0170914D014CE153E00C
:100690000E94F8050895CF93DF93CDB7DEB7229778
:1006A0000FB6F894DEBF0FBECDBF962F282F9A83CA
:1006B00029830E942C0222960FB6F894DEBF0FBE4B
:1006C000CDBFDF91CF910895CF93DF93CDB7DEB744
:1006D00023970FB6F894DEBF0FBECDBF90E0282F52
:1006E00086302B839A8339F000C08B8187309A81C2
:1006F000998329F008C080914B01898304C08091BF
:100700005001898300C08981992723960FB6F894F8
:10071000DEBF0FBECDBFDF91CF910895CF93DF93A2
:100720000F93CDB7DEB72E970FB6F894DEBF0FBE8E
:10073000CDBF80910C0190910D0160910A017091E3
:100740000B0140910801509109012091060130915F
:1007500007018D879E876B877C8749875A872F8300
:1007600038870E9487062F81388549855A856B8591
:100770007C85ED85FE858E83CF010E810E948906E2
:1007800000914B010B5FA5E005300D83AC8308F0B1
:100790002FC08C819AE52D812B358B839A8308F4A9
:1007A00024C08A8180934B01682F772724E630E0AC
:1007B00040E050E08983CA010E94FF1890934F01E6
:1007C00080934E0170934D0160934C0182E290E062
:1007D00069810E9431062E960FB6F894DEBF0FBED7
:1007E000CDBF0F91DF91CF9108958B818A83D9CFAF
:1007F0008D818C83CECFCF93DF930F93CDB7DEB7B0
:100800002E970FB6F894DEBF0FBECDBF80910A01C0
:1008100090910B01609108017091090140910601CE
:100820005091070120910401309105018D879E8729
:100830006B877C8749875A872F8338870E94870672
:100840002F81388549855A856B857C85ED85FE85A8
:100850008E83CF010E810E94890600914B010550C5
:10086000A5E005300D83AC8308F02FC08C819AE59C
:100870002D812B358B839A8308F424C08A81809341
:100880004B01682F772724E630E040E050E0898371
:10089000CA010E94FF1890934F0180934E017093FC
:1008A0004D0160934C0182E290E069810E94310623
:1008B0002E960FB6F894DEBF0FBECDBF0F91DF911D
:1008C000CF9108958B818A83D9CF8D818C83CECFB0
:1008D000CF93DF930F93CDB7DEB729970FB6F89478
:1008E000DEBF0FBECDBF80910801909109016091DC
:1008F000060170910701409104015091050120917A
:10090000020130910301888799876E837F834C832E
:100910005D832A833B830E9487062A813B814C8129
:100920005D816E817F81E885F9858983CF010981A9
:100930000E94890629960FB6F894DEBF0FBECDBF80
:100940000F91DF91CF910895CF93DF93CDB7DEB7AD
:1009500022970FB6F894DEBF0FBECDBF962F282F7B
:100960009A8329830E942C0222960FB6F894DEBF48
:100970000FBECDBFDF91CF910895000081E090E0E0
:100980000E94C8050895CF93DF93CDB7DEB7679770
:100990000FB6F894DEBF0FBECDBFF901942F562FCE
:1009A000782F7F8BCD8ADE8AEB8AFC8A298B3A8B63
:1009B000488B6F870D871E87EB87FC879A8759873F
:1009C0000E9442069F858887892F0E944206988947
:1009D0008F83892F0E94420629893A89F9019281E1
:1009E00091308E8369F400C000C081E09E81982719
:1009F0009D8300C08D818C8300C08C818B8303C05C
:100A000080E08C83FACF8B8181708030A1F000C0B0
:100A1000ED89FE8909950E94BE0488858170EB8569
:100A2000FC8581938F81817080838E818170EB85BD
:100A3000FC858283A4C08B859C85DC012D913C9133
:100A40004F81417040302A83398309F041C08F8142
:100A50008170803009F000C088858170803031F469
:100A600000C0888581708030D1F000C0898181709C
:100A7000803071F400C089818170803009F000C03D
:100A80008A8180958170803011F000C054C068C0A8
:100A90008A818170803011F000C05BC061C08981A3
:100AA0008170803031F400C089818170803049F0DC
:100AB00000C08A8180958170803011F000C03BC0F9
:100AC0004FC08A818170803011F000C042C048C0A0
:100AD00088858170803031F400C0888581708030D5
:100AE000D1F000C089818170803069F400C08981B3
:100AF0008170803009F000C08A818170803011F0EF
:100B000000C019C02DC08A8180958170803011F09D
:100B100000C01FC025C089818170803031F400C0C1
:100B200089818170803071F000C08A81817080304D
:100B300041F000C000C0ED85FE8509950E94BE040D
:100B400010C00EC08A8180958170803041F000C055
:100B500000C0EB89FC8909950E94BE0402C000C058
:100B600000C0888581702B853C85D9018D938F814C
:100B700081708C938E818170F901828300C06796A9
:100B80000FB6F894DEBF0FBECDBFDF91CF910895B1
:100B90000E94070A08950E94170A08950E94070AF2
:100BA00008950E94170A08950E94070A08950E9456
:100BB000170A08950E94070A08950E94170A0895C7
:100BC000262F372F60E040E00E94CC0A0895262FA0
:100BD000372F61E040E00E94CC0A0895262F372F7E
:100BE00060E041E00E94CC0A08950E94490B0895FC
:100BF0000E94AA0B08950E940D0C08950E94300ACD
:100C000008950E94320A08950E943F0A08950E94A2
:100C1000430A08950E946E0A08950E94880A089562
:100C20000E941E0C08950E94660C08950E946B0C91
:100C300008950E946E0C08950E94710C0895282F4B
:100C4000392F88EE93E0622F732F0E94360C08959F
:100C50000E94760C08950E94920C08950E94E30C65
:100C6000089541E00E94CC0C089540E00E94CC0C15
:100C700008950E942B0A08950E94DE0908950E949B
:100C8000E20908950E947208089561700E94A30805
:100C9000089561700E94E50808950E94E111089589
:100CA0000E94051308950E94381308958AE591E083
:100CB000089561EE7AE784E99FE308950E948C131A
:100CC00008950E94621308950E944D1408950E9491
:100CD000931408958AE591E0089561EE7AE784E936
:100CE0009FE308950E94D01408950E943C15089532
:100CF0000E949A0908950E94B40908950E94BA09B1
:100D000008950E94D80908950E94450D089581E034
:100D100008950F93017088EE93E0622F732F402F98
:100D20000E947F0D0F91089581E008950F93017047
:100D300088EE93E0622F732F402F0E94A00D0F9139
:100D400008950E94780D089581E008951F93142F4F
:100D50000E94760C282F392F117088EE93E0622FB5
:100D6000732F412F0E94A00D1F91089581E00895D7
:100D70001F93162F282F392F3595279535952795B1
:100D8000359527953595279535952795359527954B
:100D9000359527953595279535952795359527953B
:100DA000359527953595279535952795359527952B
:100DB00035952795682F792F822F932F0E94760CD7
:100DC000282F392F117088EE93E0622F732F412F57
:100DD0000E94A00D1F91089581E008951F93162F82
:100DE000682F782F770F770B862F972F95958795FC
:100DF00095958795959587959595879595958795DB
:100E000095958795959587959595879595958795CA
:100E100095958795959587959595879595958795BA
:100E200095958795959587950E94760C282F392F53
:100E3000117088EE93E0622F732F412F0E94A00D56
:100E40001F91089581E008951F93162F20E030E050
:100E5000682F792F822F932F0E94760C282F392FFD
:100E6000117088EE93E0622F732F412F0E94A00D26
:100E70001F91089581E008951F93162F682F7727FB
:100E800080E090E00E94760C282F392F117088EEB8
:100E900093E0622F732F412F0E94A00D1F910895A0
:100EA00081E008951F93142F0E94920C282F392F50
:100EB000117088EE93E0622F732F412F0E94A00DD6
:100EC0001F9108950E94C00D08950E94CB0D0895B2
:100ED00041700E94E80D089581E00E94170E089568
:100EE00080E00E94170E08950E94210E089581E06F
:100EF000089561700E94270E40E050E0282F392F9E
:100F0000642F752F842F952F089581E0089581E037
:100F100008950F935E2D0170517088EE93E0622F5B
:100F2000732F41E0202F052F0E94530E40E050E028
:100F3000282F392F642F752F842F952F0F91089507
:100F400081E0089541700E948F0E08950E94A20EC4
:100F500008950E94B10E08950E94D90E08950E942E
:100F6000FC0E40E050E0282F392F642F752F842F7E
:100F7000952F08950E943C0F08950F931F93182FEB
:100F80000E946E0C082F0E946B0C282F392F602FA7
:100F90007727812F422F532F0E94620F1F910F91AD
:100FA00008954E2D5F2D0E94620F089581E00895EF
:100FB0004E2D4170602F712F0E94980F0895FF925F
:100FC0000F931F93142F062FF82E0E94660C802F6C
:100FD0000E941E0C812F0E941E0C0E946E0C182F66
:100FE0000E946B0C282F392F612F77278F2D422FCE
:100FF000532F0E94620F1F910F91FF9008951F932E
:10100000182F0E943C0F812F0E94D90E1F91089526
:101010000F931F93142F082F0E943C0F802F612FD6
:101020000E94FC0E40E050E0282F392F642F752FCE
:10103000842F952F1F910F91089581E0089561707D
:101040000E94D51008950E94ED1008950E94F2109C
:1010500008950E94F71008950E94FC1008950E94C0
:10106000011108950E94061108950E94201108950B
:101070000E94371108950E94461140E050E0282F49
:10108000392F642F752F842F952F08950E942611D4
:1010900008951F930E946E0C182F0E946B0C282F2E
:1010A000392F812F9927622F732F0E946D111F9165
:1010B0000895602F712F0E946D11089581E00895A9
:1010C0000F930170822F932F602F0E9488110F9130
:1010D00008950E94BE1108950E94D60E08950E94A0
:1010E000DB110895282F30E028303105DCF02E3058
:1010F0003105A4F02531310524F586B12E50310992
:1011000041E050E002C0440F551F2A95E2F790E0FD
:101110004823592381E0452BA1F0089583B128503D
:101120003109EECF99B121E030E002C0220F331F28
:101130008A95E2F7892F90E02823392381E0232B39
:1011400061F780E00895282F30E0283031056CF4F5
:101150009BB121E030E0082E01C0220F0A94EAF78B
:10116000662341F1922B9BB908952E3031057CF412
:1011700045B12850310981E090E0022E01C0880F6E
:101180000A94EAF76623D1F0482B45B90895253132
:1011900031057CF448B12E50310981E090E0022EF7
:1011A00001C0880F0A94EAF761110CC0809584236E
:1011B00088B90895209529232BB908958095842313
:1011C00085B90895482B48B90895282F30E0662343
:1011D000B1F028303105B4F12E303105F4F125316C
:1011E00031051CF547B12E50310981E090E0022E07
:1011F00001C0880F0A94EAF7482B47B908952830B0
:101200003105A4F02E303105ACF1253131056CF4F7
:1012100047B12E50310981E090E0022E01C0880FC5
:101220000A94EAF78095842387B908959AB121E05A
:1012300030E0082E01C0220F0A94EAF720952923F6
:101240002AB908959AB121E030E0082E01C0220F9A
:101250000A94EAF7922B9AB9089544B128503109BB
:1012600081E090E0022E01C0880F0A94EAF7482B33
:1012700044B9089544B12850310981E090E0022E2C
:1012800001C0880F0A94EAF78095842384B90895F1
:101290001F920F920FB60F9211242F933F934F93EB
:1012A0005F936F937F938F939F93AF93BF93EF93CE
:1012B000FF93E0915301F0915401309709F00995A3
:1012C000FF91EF91BF91AF919F918F917F916F911E
:1012D0005F914F913F912F910F900FBE0F901F90F4
:1012E00018951F920F920FB60F9211242F933F93D0
:1012F0004F935F936F937F938F939F93AF93BF931E
:10130000EF93FF93E0915101F0915201309709F072
:101310000995FF91EF91BF91AF919F918F917F912F
:101320006F915F914F913F912F910F900FBE0F9052
:101330001F901895CF93C82F709354016093530159
:101340008AE090E00E94070AF89481E08CBBE8985C
:10135000E9E6F0E090818C2F83709C7F892B80835D
:10136000E89A7894CF910895109254011092530105
:10137000E8980895CF93C82F70935201609351015C
:101380008AE090E00E94070AF89482E08CBBE9981A
:10139000E9E6F0E0208190818C2F8370880F880F20
:1013A000937F892B82238083E99A7894CF91089543
:1013B0001092520110925101E99808950E94261B43
:1013C000CB010895BC0180E090E00C942B1B9F930F
:1013D0008F937F936F9380E391E09F938F931F92FE
:1013E0008FE08F9387E591E09F938F930E94541C29
:1013F0008DB79EB70A960FB6F8949EBF0FBE8DBFED
:1014000041E067E571E088EE93E00C94A00D009751
:1014100069F020E030E0EFE9FFE03197F1F700C03C
:1014200000002F5F3F4F28173907A9F708959695B9
:1014300087959695879596958795009759F020E022
:1014400030E04AE24A95F1F700C02F5F3F4F28177E
:101450003907B9F708958091550190915601089583
:1014600016BC0895833041F0823009F0089586E07B
:1014700085BD14BC16BC089587E085BDFACF14BCA9
:1014800015BC16BC089586B508951F920F920FB62D
:101490000F9211242F933F934F935F936F937F93FA
:1014A0008F939F93AF93BF93EF93FF93E091ED01E1
:1014B000F091EE01309709F00995FF91EF91BF91FE
:1014C000AF919F918F917F916F915F914F913F91DC
:1014D0002F910F900FBE0F901F9018955093EE0113
:1014E0004093ED01833089F0823051F067BD82E096
:1014F00084BD80916E00826080936E007894089520
:1015000086E085BD14BC16BCF1CF87E085BDFACF5F
:101510001092EE011092ED01EEE6F0E080818D7FF9
:10152000808314BC15BC16BC08951F920F920FB691
:101530000F9211242F933F934F935F936F937F9359
:101540008F939F93AF93BF93EF93FF93E091EB0142
:10155000F091EC01309791F00995FF91EF91BF91D7
:10156000AF919F918F917F916F915F914F913F913B
:101570002F910F900FBE0F901F9018958091E90149
:101580009091EA01892B49F35B9AE091E901F0918E
:10159000EA0109955B98E1CF662301F13093EA01F6
:1015A0002093E9011092800010928500109284002F
:1015B000442301F129E02093810048EC489F9001E9
:1015C000499F300D11243093890020938800809129
:1015D0006F00826080936F00789408953093EC01DF
:1015E0002093EB01109280001092850010928400ED
:1015F0004111E0CF9C0121503109273441E03407EB
:10160000A0F42AE02093810048EC489F9001499F74
:10161000300D1124309389002093880080916F0051
:10162000826080936F00789408952F3F334AD0F4FE
:101630002DE0209381009C01A8ECB0E00E943119BC
:1016400037E096958795779567953A95D1F770939A
:1016500089006093880080916F00826080936F00A2
:10166000789408951092EC011092EB011092EA0127
:101670001092E90110926F008FEF86BB81E080939A
:10168000800083E080938100109285001092840096
:1016900008951092EC011092EB011092EA01109261
:1016A000E90110926F008FEF86BB81E0809380008C
:1016B00083E0809381001092850010928400089549
:1016C0001092E8011092E70110926F008FEF86BB35
:1016D0001092800010928100109285001092840078
:1016E00008951F920F920FB60F9211242F933F93DC
:1016F0004F935F936F937F938F939F93AF93BF931A
:10170000EF93FF93E091E701F091E801309789F0C2
:1017100009951092E8011092E70110926F008FEF87
:1017200086BB10928000109281001092850010926A
:101730008400FF91EF91BF91AF919F918F917F9125
:101740006F915F914F913F912F910F900FBE0F902E
:101750001F9018950F931F932091E7013091E80196
:10176000232B19F01F910F91089510926F002FEF06
:1017700026BB10928000109281001092850010927A
:1017800084008B019C01000F111F221F331F000FCB
:10179000111F221F331F000F111F221F331F000FA5
:1017A000111F221F331F01151105E1E02E0731051E
:1017B00010F101151105210584E0380798F65093C2
:1017C000E8014093E7014AE036952795179507957C
:1017D0004A95D1F711950195110910938500009351
:1017E000840085E08093810081E080936F0078948D
:1017F0001F910F9108955093E8014093E70140EF46
:1018000046039001479F300D1124309385002093AB
:10181000840081E080938100E7CF1092E80110926C
:10182000E70110926F008FEF86BB1092800010923C
:10183000810010928500109284000895A0916601A5
:10184000AF3791F0E1E0EA0FE0936601BB27A7FD17
:10185000B095A959BE4F8C93FF27E7FDF095E95944
:10186000FE4F108281E0089580E008951092660195
:101870000097E9F0FB015491552329F140E006C09F
:10188000FB01E20FF31F54915523A1F0A42FBB27B6
:10189000A7FDB095A959BE4F5C934F5F242F332706
:1018A00027FD30952817390758F34093660187E6DE
:1018B00091E0089540936601F901E959FE4F1082C5
:1018C00087E691E00895E0E0F0E0F7CF109266013E
:1018D00010926701089587E691E00895809166016E
:1018E00008959091660180E8891B08959F938F93D6
:1018F0007F936F9380E391E09F938F931F928FE08C
:101900008F9387E591E09F938F930E94541C8DB72E
:101910009EB70A960FB6F8949EBF0FBE8DBF87E59F
:1019200091E008959F938F937F936F9384E391E069
:101930009F938F931F928FE08F9387E591E09F9302
:101940008F930E94541C8DB79EB70A960FB6F894D9
:101950009EBF0FBE8DBF87E591E008959F938F9343
:101960007F936F931F924F9389E391E09F938F939F
:101970001F928FE08F9387E591E09F938F930E9452
:10198000541C8DB79EB70C960FB6F8949EBF0FBE31
:101990008DBF87E591E0089541110AC0807991706B
:1019A000F999FECF92BD81BD60BDFA9AF99A08956A
:1019B000F999FECF8079917092BD81BDF89A20B5DA
:1019C0006213EECF0895F999FECF8079917092BDA0
:1019D00081BDF89A80B508951F920F920FB60F92AD
:1019E00011248F939F9380915501909156010196F8
:1019F00090935601809355019F918F910F900FBE48
:101A00000F901F9018951F920F920FB60F921124EE
:101A10002F938F939F93EF93FF938091F9018111FF
:101A20001EC0E091FB0181E08E0F8093FB0190913D
:101A3000C600FF27E7FDF095E350FE4F90839927FE
:101A400087FD90958F77907897FD13C08093FB0169
:101A500091E02091FC01281390E09093F901FF910F
:101A6000EF919F918F912F910F900FBE0F901F902C
:101A70001895019780689F6F01968093FB0191E014
:101A80002091FC012813E8CFE8CF9C0140E050E012
:101A9000220F331F441F551F220F331F441F551F92
:101AA000220F331F441F551F220F331F441F551F82
:101AB00060E074E284EF90E00E940F192150310938
:101AC00041095109BB2757FDBA95A52F942F832FA4
:101AD0008093C5002093C400E2ECF0E08081866032
:101AE0008083E1ECF0E080818869808378940895B8
:101AF0009091C00095FFFCCF8093C6000895009799
:101B0000A1F0FB013491332381F03196860F971FAA
:101B10002091C00025FFFCCF3093C600E817F907DD
:101B200021F0349131963111F3CF442341F080916B
:101B3000C00085FFFCCF8AE08093C6000895089519
:101B4000009799F0FB013081332379F03196860FAD
:101B5000971F2091C00025FFFCCF3093C600E817E7
:101B6000F90719F031913111F4CF442341F08091FC
:101B7000C00085FFFCCF8AE08093C60008950895D9
:101B80009091FC018091FB01981711F081E008957C
:101B90008091F90108952091F9019091FB018091C4
:101BA000FC01981791F09FB7F894E091FC0181E057
:101BB0008E0F8093FC01FF27E7FDF095E350FE4F69
:101BC00080811092F9019FBF08952111ECCFFFCFC2
:101BD000FF920F931F93CF93DF931F92CDB7DEB782
:101BE000182FF62E00912D01602F8BE049830E9463
:101BF000E508602F8DE00E94E508602F8AE00E94D2
:101C0000E508812F83708065498190E2499FA0019A
:101C10001124842B6F2D6370660F660F682B6CBDCB
:101C20000F90DF91CF911F910F91FF900895811137
:101C300004C08DB58E7F8DBD08958DB581608DBD3D
:101C400008958EBD0DB407FEFDCF8EB508950097A3
:101C5000D1F0AC0120E030E01EBC0DB407FEFDCF9A
:101C60007EB520383105D4F02F5F3F4F2817390754
:101C700099F7662329F0203831054CF010920303C0
:101C800084E892E008956623D9F340E050E0FA0139
:101C9000EC57FD4F108284E892E00895F901EC576B
:101CA000FD4F7083E1CF0F93009749F1A0E0B0E0C2
:101CB00050E0E0E0F0E0442301F1A60FB71F5C9193
:101CC00051111BC021110EC030E03EBD0DB407FE06
:101CD000FDCF3EB5E038F105ECF03196DF01E817B5
:101CE000F90749F7002329F0E038F10564F0109274
:101CF000030384E892E00F910895352FE6CF002387
:101D0000C1F3E0E0F0E0EC57FD4F108284E892E090
:101D10000F910895DF01AC57BD4F3C93DECF637048
:101D20006093B9008093B80084E08093BC004111B7
:101D300001C0089561E082E10E94A30861E083E1AF
:101D40000C94A30884EA8093BC008091BC0087FFB8
:101D5000FCCF9091B900987F81E0983009F080E045
:101D6000089584E98093BC0008958093BB0084E8C3
:101D70008093BC008091BC0087FFFCCF9091B9009C
:101D8000987F81E0983209F080E00895882351F02F
:101D900084EC8093BC008091BC0087FFFCCF8091D5
:101DA000BB00089584E88093BC00F5CF8091B90012
:101DB000089594EA9093BC009091BC0097FFFCCFEB
:101DC0009091B900880F8F5F8093BB0084E8809367
:101DD000BC008091BC0087FFFCCF8091B90084E8F3
:101DE0008093BC008091BC0087FFFCCF8091BB003A
:101DF00094E99093BC00089594EA9093BC0090916C
:101E0000BC0097FFFCCF9091B900880F8F5F809343
:101E1000BB0084E88093BC008091BC0087FFFCCFAE
:101E20008091B900262F30E021153105E1F0E4E87A
:101E3000F2E080E090E054E864EC019682179307AA
:101E4000C4F480389105A9F06093BC004091BC00B7
:101E500047FFFCCF4091BB0041938217930719F0D5
:101E60008038910551F784E98093BC0084E892E0C2
:101E700008955093BC00EACF94EA9093BC009091EF
:101E8000BC0097FFFCCF9091B90090E0880F991F9C
:101E90008093BB0084E88093BC008091BC0087FFE6
:101EA000FCCF8091B9006093BB0084E88093BC00B4
:101EB0008091BC0087FFFCCF8091B90084E98093BA
:101EC000BC00089594EA9093BC009091BC0097FFE9
:101ED000FCCF9091B90090E0880F991F8093BB00D0
:101EE00084E88093BC008091BC0087FFFCCF809188
:101EF000B90061157105C1F0FA0180818823A1F054
:101F00003196640F751F94E88093BB009093BC00DA
:101F10008091BC0087FFFCCF8091B900E617F707DE
:101F200019F081918111F0CF84E98093BC0008956C
:101F30000F931F93CF93DF931F92CDB7DEB78B0123
:101F400094EA9093BC009091BC0097FFFCCF9091D5
:101F5000B90090E0880F991F8093BB0084E88093BC
:101F6000BC008091BC0087FFFCCF8091B90068EE77
:101F700073E0C80149830E94171C49810097C9F08A
:101F8000F80124912223A9F03196800F911F34E8A3
:101F90002093BB003093BC002091BC0027FFFCCFF6
:101FA0002091B900E817F90721F024913196211109
:101FB000EFCF442361F08AE08093BB0084E88093F4
:101FC000BC008091BC0087FFFCCF8091B90084E900
:101FD0008093BC000F90DF91CF911F910F910895D6
:101FE0008093BB00662341F084EC8093BC00809119
:101FF000BC0087FFFCCF089584E88093BC00F7CF36
:102000001F920F920FB60F9211242F933F934F936D
:102010005F936F937F938F939F93AF93BF93EF9350
:10202000FF93CF93DF931F92CDB7DEB78091B900B6
:10203000887F8036F9F08091B900887F883A09F46A
:1020400043C08091BC00856C8093BC000F90DF91F1
:10205000CF91FF91EF91BF91AF919F918F917F9120
:102060006F915F914F913F912F910F900FBE0F9005
:102070001F901895E4E8F2E060E070E024EC209313
:10208000BC008091BC0087FFFCCF9091BB00809189
:10209000B900887F803829F08091B900887F88381E
:1020A00031F491936F5F7F4F6038710541F7E09194
:1020B000F501F091F601309709F457C084E892E0F9
:1020C00009951092FA01BDCFE091F301F091F4016E
:1020D000309751F11982CE01019609952981222369
:1020E00009F4AFCF60E0A4E874EC462F50E0FC01A7
:1020F000E40FF51F30813093BB0030E021503109EF
:10210000421753077CF57093BC002091BC0027FF59
:10211000FCCF2091B900287F283B09F092CF6F5F58
:102120002981621710F38DCFE091EF01F091F0015A
:10213000309709F486CF8091FA01882309F481CF82
:1021400009958093BB0084E88093BC008091BC001B
:1021500087FFFCCF1092FA018091BC00856C8093C0
:10216000BC0074CFA093BC00D0CFE091F101F091FE
:10217000F201309759F06230710544F08091840289
:102180008093FA016091850209955BCF8091EF0100
:102190009091F001892B09F454CF672B09F451CFAA
:1021A000809184028093FA014CCFCF93C82F66238D
:1021B00041F061E082E10E94A30861E083E10E94B6
:1021C000A308CC0FC093BA0084E08093BC0085ECD8
:1021D0008093BC007894CF9108959093F8018093F8
:1021E000F70108959093F6018093F5010895909377
:1021F000F4018093F30108959093F2018093F1012B
:1022000008959093F0018093EF010895ECEBF0E0D6
:1022100080818E7F80831092F8011092F7011092D6
:10222000F6011092F5011092F4011092F301109250
:10223000F2011092F1011092F0011092EF01089555
:102240008091BC00881F8827881F08958093BB0059
:1022500084E88093BC008091BC0087FFFCCF809114
:10226000B9008091BC00856C8093BC00089584EC1B
:102270008093BC008091BC0087FFFCCF8091BB00A5
:102280009091BC00956C9093BC000895282F30E08D
:1022900021153105E1F0E4E8F2E080E090E054E857
:1022A00064EC019682179307ACF48038910591F0A5
:1022B0006093BC004091BC0047FFFCCF4091BB0045
:1022C00041938217930719F08038910551F784E8FC
:1022D00092E008955093BC00EDCF0097C1F0FB0150
:1022E00020812223A1F03196860F971F34E8209396
:1022F000BB003093BC002091BC0027FFFCCF209195
:10230000B900E817F90719F021912111F0CF0895CC
:102310001F93CF93DF93EC01162F68EE73E00E94BA
:10232000171C0097C9F0FE0124912223A9F03196D1
:102330008C0F9D1F34E82093BB003093BC0020918C
:10234000BC0027FFFCCF2091B900E817F90721F066
:10235000249131962111EFCF112361F08AE080930F
:10236000BB0084E88093BC008091BC0087FFFCCF59
:102370008091B900DF91CF911F910895ECEBF0E0CF
:1023800080818E7F80831092F8011092F701109265
:10239000F6011092F5011092F4011092F3011092DF
:1023A000F2011092F1011092F0011092EF011092DF
:1023B000BA0010820895ECEBF0E08081856C808398
:1023C0000895CF93DF93C82FD62F60912D010E94DF
:1023D000E508C63009F460C050F0CA30C1F0CB3017
:1023E00009F44AC0C93031F1DF91CF910895C3306B
:1023F000A1F1C530C9F7DD2309F459C0DF3F09F465
:10240000B3C083E284BD83E085BDD8BDEDCFDD23BD
:1024100009F48CC0DF3F09F498C081E2809380000A
:1024200083E0809381006D2F70E070938B00609348
:102430008A00DACFDD2309F46AC0DF3F09F4ACC0BB
:1024400081E88093800083E0809381006D2F70E0AD
:102450007093890060938800C7CFDD2309F449C0D9
:10246000DF3F09F48BC081E28093B00084E0809369
:10247000B100D093B400B8CFDD2369F1DF3F09F498
:10248000A4C081E88093B00084E08093B100D09331
:10249000B300DF91CF910895DD2399F0DF3F09F478
:1024A0008AC083E884BD83E085BDD7BD9DCF14BCC1
:1024B00015BC18BC60912E0185E0DF91CF910C9482
:1024C000A30814BC15BC17BC60912E0186E0DF91F7
:1024D000CF910C94A3081092B00082E08093B100D9
:1024E0001092B30060912E018BE0DF91CF910C949C
:1024F000A3081092B00082E08093B1001092B40063
:1025000060912E0183E0DF91CF910C94A30810928B
:1025100080001092810010928900109288006091D2
:102520002E0189E0DF91CF910C94A30810928000D6
:102530001092810010928B0010928A0060912E01FF
:102540008AE0DF91CF910C94A30810928000109242
:10255000810010928B0010928A0060912F018AE016
:10256000DF91CF910C94A30814BC15BC18BC6091EA
:102570002F0185E0DF91CF910C94A3081092B00059
:1025800082E08093B1001092B40060912F0183E04B
:10259000DF91CF910C94A3081092800010928100DB
:1025A000109289001092880060912F0189E0DF91DC
:1025B000CF910C94A30814BC15BC17BC60912F01DB
:1025C00086E0DF91CF910C94A3081092B00082E0D6
:1025D0008093B1001092B30060912F018BE0DF91E6
:1025E000CF910C94A30887E880937A0080E48093CD
:1025F0007C008AE090E00E94070A61E08DE00E9482
:10260000E50860E08DE00C94A308CF93C82F8830D4
:10261000C0F480917A0087FF18C0C064C0937C002A
:1026200080917A00806480937A0080917A0086FDA0
:10263000FCCF809178002091790090E0922BCF918F
:10264000089580E090E0CF91089587E880937A0024
:1026500080E480937C008AE090E00E94070A61E0B9
:102660008DE00E94E50860E08DE00E94A308D5CFD0
:1026700080917A0087FF13C088EC80937C00809162
:102680007A00806480937A0080917A0086FDFCCF86
:10269000809178002091790090E0922B089587E84E
:1026A00080937A0080E480937C008AE090E00E942E
:1026B000070A61E08DE00E94E50860E08DE00E947D
:1026C000A308DACF80917A0087FF13C08EE480934D
:1026D0007C0080917A00806480937A0080917A00F7
:1026E00086FDFCCF809178002091790090E0922BBC
:1026F000089587E880937A0080E480937C008AE0E4
:1027000090E00E94070A61E08DE00E94E50860E029
:102710008DE00E94A308DACFCF92DF92EF92FF9272
:102720000F931F93CF93DF938C016A017B018091FC
:102730007A0087FF2AC088EC80937C0080917A0021
:10274000806480937A0080917A0086FDFCCFC091EE
:10275000780080917900D0E0D82B0115110549F05F
:1027600020E030E0A901C701B6010E94881981115B
:102770001FC0CE0181529140DF91CF911F910F91E7
:10278000FF90EF90DF90CF90089587E880937A00D4
:1027900080E480937C008AE090E00E94070A61E078
:1027A0008DE00E94E50860E08DE00E94A308C3CFA1
:1027B000BE01601B710B80E090E00E94251AA7010A
:1027C00096010E948C190E94F419CB01D5CF1F925B
:1027D0000F920FB60F9211242F933F934F935F9355
:1027E0006F937F938F939F93AF93BF93CF93DF9319
:1027F000EF93FF9380917A00877F80937A00E09136
:102800008202F09183023097F1F08091780020915C
:10281000790090E0922B0995109283021092820227
:10282000FF91EF91DF91CF91BF91AF919F918F91E8
:102830007F916F915F914F913F912F910F900FBEBC
:102840000F901F901895C0918002D091810220971F
:1028500039F3609178008091790070E0782B809155
:102860000E0190910F01681B790B80E090E00E94AF
:10287000251A20910A0130910B0140910C015091D1
:102880000D010E948C190E94F419CB01FE010995DB
:102890001092810210928002C3CF1F93CF93DF93D7
:1028A000182FEB01883070F480917A0087FF0FC0F9
:1028B00080917A0086FD06C02091820230918302C9
:1028C000232BE1F080E0DF91CF911F91089587E8FD
:1028D00080937A0080E480937C008AE090E00E94FC
:1028E000070A61E08DE00E94E50860E08DE00E944B
:1028F000A30880917A0086FFDFCFE4CF2091800289
:1029000030918102232BF1F6D0938302C09382028F
:10291000106410937C0080917A00886480937A0020
:10292000789481E0D0CFCF93DF93EC0180917A004F
:1029300087FF0EC080917A0086FD06C0209182023A
:1029400030918302232BB9F080E0DF91CF9108957D
:1029500087E880937A0080E480937C008AE090E0AE
:102960000E94070A61E08DE00E94E50860E08DE0CA
:102970000E94A308DFCF8091800290918102892B71
:1029800019F7D0938302C093820288EC80937C0075
:1029900080917A00886480937A00789481E0D5CF22
:1029A000CF92DF92EF92FF920F931F93CF93DF931B
:1029B00000D0CDB7DEB78C016A017B0180917A002F
:1029C00087FF16C080917A0086FD06C04091820282
:1029D00050918302452B19F180E00F900F90DF9109
:1029E000CF911F910F91FF90EF90DF90CF900895BE
:1029F00087E880937A0080E480937C008AE090E00E
:102A000029833A830E94070A61E08DE00E94E5086D
:102A100060E08DE00E94A3083A812981D3CF8091A4
:102A2000800290918102892BB9F630938102209324
:102A3000800201151105A9F020E030E0A901C701CD
:102A4000B6010E948819882361F010930F0100934A
:102A50000E01C0920A01D0920B01E0920C01F0929B
:102A60000D0188EC80937C0080917A0088648093CB
:102A70007A00789481E0B1CFCF93DF93EC0180911D
:102A80007A0087FF0EC080917A0086FD06C02091F3
:102A9000820230918302232BB9F080E0DF91CF9145
:102AA000089587E880937A0080E480937C008AE030
:102AB00090E00E94070A61E08DE00E94E50860E076
:102AC0008DE00E94A308DFCF809180029091810267
:102AD000892B19F7D0938302C09382028EE48093EE
:102AE0007C0080917A00886480937A00789481E0F9
:102AF000D5CFA3E1B0E0EFE7F5E10C944B197C01F1
:102B00001B016A01FC0117821682838181FF66C363
:102B1000BE016F5F7F4F4B01F7019381F10193FD80
:102B2000859193FF81911F01882309F453C3853256
:102B300039F493FD859193FF81911F01853239F41A
:102B4000B70190E00E94221C56016501E5CF10E01C
:102B5000512C20E02032A0F48B3269F030F4803226
:102B600059F0833269F420612CC08D3239F0803302
:102B700039F4216026C02260246023C0286021C06F
:102B800027FD27C030ED380F3A3078F426FF06C015
:102B9000FAE01F9F300D1124132F13C06AE0569ED8
:102BA000300D1124532E20620CC08E3221F426FDEC
:102BB00011C3206406C08C3611F4206802C0883628
:102BC00041F4F10193FD859193FF81911F018111E2
:102BD000C1CF9BEB980F933018F42061805E06C044
:102BE0009BE9980F933008F0AAC12F7E26FF16E0CC
:102BF0002F73722E853621F4F22FF0647F2E08C0D9
:102C0000863621F4622F6068762E02C011111150B1
:102C100077FE07C01C3348F444244394410E27E058
:102C20000BC0183030F4212F06C027E04CE3442EAF
:102C300003C027E017E0412C560174E0A70EB11C39
:102C4000F6016081718182819381042DA4010E942B
:102C5000341B6C01098100FF02C003FF06C071FC38
:102C600007C072FC08C0612C08C03DE2632E05C09D
:102C70002BE2622E02C090E2692E802F8C7099F1B7
:102C8000662011F084E001C083E0851510F0512C1E
:102C90000BC0581A73FC08C0B70180E290E00E9494
:102CA000221C5A94C9F7F3CF662029F0B701862D6C
:102CB00090E00E94221C03FD03C00CE610E002C05D
:102CC00008E610E0F72DF0717F2EF801849188233B
:102CD00009F476C271108052B70190E00E94221C64
:102CE0000F5F1F4FF2CF77FE0FC04C0C04FF04C0E4
:102CF0008A81813309F44A94141474F5F8E0F415C8
:102D000078F588E0482E2CC076FC2AC0812F90E010
:102D10008C159D059CF06CEFC6166FEFD60674F00F
:102D2000772D7068772E0AC0E2E0F0E0EC0FFD1F0F
:102D3000E10FF11D8081803319F411501111F4CF8E
:102D400077FE0EC044244394410E812F90E0C816B4
:102D5000D9062CF41C1904C04424439401C010E08B
:102D600077FE07C01C141D043CF496012F5F3F4FF3
:102D700005C025E030E002C021E030E0662011F01F
:102D80002F5F3F4F112331F0412F50E04F5F5F4FD6
:102D9000240F351F452D50E02417350714F4521A1F
:102DA00001C0512C872D897049F4552039F0B701A5
:102DB00080E290E00E94221C5A94F7CF662029F00E
:102DC000B701862D90E00E94221C73FC09C055209B
:102DD00039F0B70180E390E00E94221C5A94F7CFAB
:102DE00077FE5FC09C2D8D2DD7FE02C090E080E065
:102DF000692E782E40E050E0C601841991099D8724
:102E00008C87960126193709280D391D812F90E0EE
:102E1000EE27FF27E81BF90BFF87EE87FFEF6F1602
:102E20007F0669F4B7018EE290E02B8B3A8B488BDA
:102E3000598B0E94221C598948893A892B89C614CA
:102E4000D70454F06C857D85661577052CF4F9015F
:102E5000E40FF51F818101C080E371E0671A7108FA
:102E60004F5F5F4FEE85FF856E167F066CF0B701F2
:102E700090E02B8B3A8B488B598B0E94221C2B891C
:102E80003A8948895989CACF6C147D0439F49A81EA
:102E9000963318F4953311F404FF81E3B70190E001
:102EA0004BC08A81813309F00F7EB70190E00E9408
:102EB000221C111105C074FE18C085E490E017C0F3
:102EC000B7018EE290E00E94221C82E066246394A7
:102ED000680EF401E80FF11D8081B70190E00E94B7
:102EE000221C115041F3862DF1CF85E690E0B70109
:102EF0000E94221CD7FC05C0C114D10439F404FF80
:102F000005C0D194C194D1088DE201C08BE2B70114
:102F100090E00E94221C80E36AE0C616D1042CF0E7
:102F20008F5FFAE0CF1AD108F7CFB70190E00E9487
:102F3000221CB701C601C0960E94221C41C18336E3
:102F400031F0833779F0833509F058C021C056013C
:102F500072E0A70EB11CF6018081898301E010E0C8
:102F6000640114C05601F2E0AF0EB11CF601C0803E
:102F7000D18026FF03C0612F70E002C06FEF7FEFAA
:102F8000C6012B8B0E94171C8C012B892F7715C033
:102F90005601F2E0AF0EB11CF601C080D18026FFD1
:102FA00003C0612F70E002C06FEF7FEFC6012B8B73
:102FB0000E940C1C8C012B892068722E23FD1AC0E4
:102FC000852D90E008171907A8F4B70180E290E07A
:102FD0000E94221C5A94F4CFF60177FC859177FE6B
:102FE00081916F01B70190E00E94221C51105A9408
:102FF000015011090115110579F7E2C0843611F06D
:10300000893651F5560127FF09C0F4E0AF0EB11C17
:10301000F60160817181828193810AC0F2E0AF0E76
:10302000B11CF60160817181882777FD8095982F0A
:10303000022F0F7697FF08C0909580957095619547
:103040007F4F8F4F9F4F00682AE030E0A4010E941D
:10305000841CC82EC8183EC0022F853721F40F7E6D
:103060002AE030E01DC0097F8F3691F018F48835D2
:1030700059F0B0C0803719F0883711F0ABC000614B
:1030800004FF09C0046007C024FF08C0066006C032
:1030900028E030E005C020E130E002C020E132E06D
:1030A000560107FF09C0F4E0AF0EB11CF6016081C4
:1030B00071818281938108C0F2E0AF0EB11CF601EC
:1030C0006081718180E090E0A4010E94841CC82E80
:1030D000C8180F7706FF0BC0202F2E7FC11650F4A3
:1030E00004FF0AC002FD08C0202F2E7E05C0DC2C84
:1030F000202F03C0DC2C01C0D12E24FF0DC0FE0107
:10310000EC0DF11D8081803311F4297E09C022FF6E
:1031100006C0D394D39404C0822F867809F0D39448
:1031200023FD13C020FF06C01C2DD51418F4150D67
:103130001D19D52CD51468F4B70180E290E02B8BD3
:103140000E94221CD3942B89F5CFD51410F45D185E
:1031500001C0512C24FF12C0B70180E390E02B8BFB
:103160000E94221C2B8922FF17C021FF03C088E583
:1031700090E002C088E790E0B7010CC0822F86780B
:1031800059F021FD02C080E201C08BE227FD8DE2F3
:10319000B70190E00E94221CC11638F4B70180E309
:1031A00090E00E94221C1150F7CFCA94F401EC0D5C
:1031B000F11D8081B70190E00E94221CC110F5CF63
:1031C000552009F4C2CCB70180E290E00E94221C95
:1031D0005A94F6CFF7018681978102C08FEF9FEF57
:1031E0006396E2E10C9467191092B00082E080933C
:1031F000B100EEE6F0E08081816080830895DB011C
:103200008F939F930E944019BF91AF91A29F800D11
:10321000911DA39F900DB29F900D11240895A1E2DE
:103220001A2EAA1BBB1BFD010DC0AA1FBB1FEE1F40
:10323000FF1FA217B307E407F50720F0A21BB30B8B
:10324000E40BF50B661F771F881F991F1A9469F707
:1032500060957095809590959B01AC01BD01CF0163
:103260000895A29FB001B39FC001A39F700D811D5F
:103270001124911DB29F700D811D1124911D08957F
:103280000E943119A59F900DB49F900DA49F800DB1
:10329000911D112408952F923F924F925F926F9249
:1032A0007F928F929F92AF92BF92CF92DF92EF92D6
:1032B000FF920F931F93CF93DF93CDB7DEB7CA1B57
:1032C000DB0B0FB6F894DEBF0FBECDBF09942A8882
:1032D000398848885F846E847D848C849B84AA842A
:1032E000B984C884DF80EE80FD800C811B81AA81B7
:1032F000B981CE0FD11D0FB6F894DEBF0FBECDBF82
:10330000ED010895EE0FFF1F0590F491E02D099453
:10331000D9D008F481E008950CD00FC107D140F056
:10332000FED030F021F45F3F19F0F0C0511139C1E7
:10333000F3C014D198F39923C9F35523B1F3951B26
:10334000550BBB27AA2762177307840738F09F5FC6
:103350005F4F220F331F441FAA1FA9F333D00E2E35
:103360003AF0E0E830D091505040E695001CCAF7A2
:1033700029D0FE2F27D0660F771F881FBB1F261767
:1033800037074807AB07B0E809F0BB0B802DBF013A
:10339000FF2793585F4F2AF09E3F510568F0B6C053
:1033A00000C15F3FECF3983EDCF386957795679517
:1033B000B795F7959F5FC9F7880F911D96958795EB
:1033C00097F90895E1E0660F771F881FBB1F62170A
:1033D00073078407BA0720F0621B730B840BBA0BC8
:1033E000EE1F88F7E095089504D06894B111D9C014
:1033F0000895BCD088F09F5790F0B92F9927B75106
:10340000A0F0D1F0660F771F881F991F1AF0BA95A8
:10341000C9F712C0B13081F0C3D0B1E00895C0C087
:10342000672F782F8827B85F39F0B93FCCF386959E
:1034300077956795B395D9F73EF4909580957095FB
:1034400061957F4F8F4F9F4F0895E89409C097FB78
:103450003EF490958095709561957F4F8F4F9F4F6B
:103460009923A9F0F92F96E9BB279395F6958795AF
:1034700077956795B795F111F8CFFAF4BB0F11F472
:1034800060FF1BC06F5F7F4F8F4F9F4F16C0882319
:1034900011F096E911C0772321F09EE8872F762F4F
:1034A00005C0662371F096E8862F70E060E02AF090
:1034B0009A95660F771F881FDAF7880F969587957C
:1034C00097F90895990F0008550FAA0BE0E8FEEF51
:1034D00016161706E807F907C0F012161306E407D8
:1034E000F50798F0621B730B840B950B39F40A26D1
:1034F00061F0232B242B252B21F408950A2609F4AF
:10350000A140A6958FEF811D811D089597F99F67B2
:1035100080E870E060E008959FEF80EC089500245B
:103520000A941616170618060906089500240A9428
:1035300012161306140605060895092E0394000CAE
:1035400011F4882352F0BB0F40F4BF2B11F460FF3D
:1035500004C06F5F7F4F8F4F9F4F089557FD905866
:10356000440F551F59F05F3F71F04795880F97FB47
:10357000991F61F09F3F79F0879508951216130601
:103580001406551FF2CF4695F1DF08C01616170630
:103590001806991FF1CF8695710561050894089565
:1035A000E894BB2766277727CB0197F908958F9278
:1035B0009F92AF92BF92CF92DF92EF92FF92CF9302
:1035C000DF93EC01688179818A819B8161157105A6
:1035D0008105910521F464E279ED8BE597E02DE119
:1035E00033EF41E050E00E94E21C49015A019B0187
:1035F000AC01A7EAB1E40E9440196B017C01ACEE7A
:10360000B4EFA50194010E94041DC60ED71EE81E4A
:10361000F91EF7FE06C081E0C81AD108E10880E86B
:10362000F80AC882D982EA82FB82C701B6019F7775
:10363000DF91CF91FF90EF90DF90CF90BF90AF9050
:103640009F908F9008950E94D71A089583E191E08A
:103650000E94D71A08956093130170931401809308
:103660001501909316010895283008F027E03327BC
:10367000DA01990F311D87FD916000966105710592
:1036800039F432602E5F3D9330E32A95E1F70895D7
:103690009F3F30F080387105610509F03C5F3C5F69
:1036A0003D93913008F08068911DDF93CF931F9375
:1036B0000F93FF92EF92192F987F9695E92F969589
:1036C0009695E90FFF27EE5EFE4F99273327EE24EC
:1036D000FF24A701E70105900894079428F4360F0A
:1036E000E71EF81E491F511D660F771F881F991F7F
:1036F0000694A1F70590079428F4E70EF81E491FD9
:10370000561FC11D770F881F991F661F0694A1F7CA
:103710000590079428F4F80E491F561FC71FD11DA6
:10372000880F991F661F771F0694A1F705900794CD
:1037300020F4490F561FC71FD81F990F661F771F08
:10374000881F0694A9F784911095177041F0D695BB
:10375000C79557954795F794E7941A95C1F7E8EB05
:10376000F0E06894159015913591659195910590CB
:103770007FE27395E118F10A430B560BC90BD00990
:10378000C0F7E10CF11E431F561FC91FD01D7EF468
:10379000703311F48A95E6CFE894015030F0080FA9
:1037A0000AF40027021708F4202F2395022F7A33FA
:1037B00028F079E37D932A95E9F710C07D932A9547
:1037C00089F6069497956795379517951794E1189C
:1037D000F10A430B560BC90BD00998F023957E9143
:1037E00073957A3308F070E37C932013B8F77E91D9
:1037F00070617D9330F0839571E37D9370E32A953A
:10380000E1F71124EF90FF900F911F91CF91DF917D
:10381000992787FD90950895FC01059061507040AF
:103820000110D8F7809590958E0F9F1F0895FC0189
:103830006150704001900110D8F7809590958E0FDF
:103840009F1F08950F931F93CF93DF93182F092F76
:10385000EB018B8181FD03C08FEF9FEF20C082FFC2
:1038600010C04E815F812C813D81421753077CF44B
:10387000E881F9819F012F5F3F4F398328831083AF
:1038800006C0E885F985812F0995892B29F72E81B6
:103890003F812F5F3F4F3F832E83812F902FDF91FA
:1038A000CF911F910F910895AEE0B0E0EAE5FCE101
:1038B0000C9459190D891E898F89988D26E02C83C7
:1038C0001A83098397FF02C080E090E801979E83E6
:1038D0008D83AE01455E5F4F698D7A8DCE01019675
:1038E0000E9479154D815E8157FD0AC02F81388570
:1038F000421753070CF49A01F801E20FF31F1082EC
:103900002E96E4E00C947519FA01AA27283051F19B
:10391000203181F1E8946F936E7F6E5F7F4F8F4F00
:103920009F4FAF4FB1E03ED0B4E03CD0670F781F5F
:10393000891F9A1FA11D680F791F8A1F911DA11D44
:103940006A0F711D811D911DA11D20D009F468947D
:103950003F912AE0269F11243019305D3193DEF625
:10396000CF010895462F4770405D4193B3E00FD0DB
:10397000C9F7F6CF462F4F70405D4A3318F0495DC6
:1039800031FD4052419302D0A9F7EACFB4E0A695A9
:103990009795879577956795BA95C9F700976105CB
:1039A000710508959B01AC010A2E06945795479521
:1039B00037952795BA95C9F7620F731F841F951F16
:1039C000A01D0895052E97FB1EF400940E94F91C7B
:1039D00057FD07D00E940F1907FC03D04EF40C943A
:1039E000F91C50954095309521953F4F4F4F5F4FB3
:1039F000089590958095709561957F4F8F4F9F4F5B
:103A00000895B7FF0C9440190E944019821B930B34
:063A10000895F894FFCFB9
:103A160070007C009200A200B0000000803F2101EF
:103A2600000407010000000100010001000100017F
:103A36000003020100000100010302010001000170
:0E3A4600256C6400252E326600252E2A6600AF
:00000001FF
